:020000040800F2
:1000000000040020BB1C0008C91C0008CB1C000811
:10001000CD1C0008CF1C0008D11C00080000000007
:10002000000000000000000000000000D31C0008D9
:10003000D51C000800000000D71C0008D91C0008CF
:10004000DB1C0008DB1C0008DB1C0008DB1C0008B4
:10005000DB1C0008DB1C0008DB1C0008DB1C0008A4
:10006000DB1C0008DB1C0008DB1C0008DB1C000894
:10007000DB1C0008DB1C0008DB1C0008DB1C000884
:10008000DB1C0008DB1C0008DB1C0008DB1C000874
:10009000DB1C0008DB1C0008DB1C0008DB1C000864
:1000A000DB1C0008DB1C0008DB1C0008DB1C000854
:1000B000DB1C0008DB1C0008DB1C0008DB1C000844
:1000C000DB1C0008DB1C0008DB1C0008DB1C000834
:1000D000DB1C0008DB1C0008DB1C0008DB1C000824
:1000E000DB1C0008DB1C0008DB1C0008DB1C000814
:1000F000DB1C0008DB1C0008DB1C0008DB1C000804
:10010000DB1C0008DB1C0008DB1C0008DB1C0008F3
:10011000DB1C0008DB1C0008DB1C0008DB1C0008E3
:10012000DB1C0008DB1C0008DB1C0008DB1C0008D3
:1001300000F002F800F063F80AA090E8000C824496
:100140008344AAF10107DA4501D100F058F8AFF273
:10015000090EBAE80F0013F0010F18BFFB1A43F0A5
:1001600001031847B4300000D430000010F8013B00
:100170000A4413F0030408BF10F8014B1D1108BF17
:1001800010F8015B641E05D010F8016B641E01F8C5
:10019000016BF9D1002D15D010F8014B03F00C03C1
:1001A0000C2BA1EB04040ABF10F8013BA4EB831451
:1001B000A4EB032405F1010314F8016B5B1E01F8A5
:1001C000016BF9D5914238BF10F8013BD1D370478C
:1001D0000023002400250026103A28BF78C1FBD850
:1001E000520728BF30C148BF0B607047642901F037
:1001F000D385002070471FB51FBD10B510BD01F09D
:10020000EBFE1146FFF7F7FF00F008F801F009FFD9
:1002100003B4FFF7F2FF03BC01F00EFF9EB04FF0F6
:10022000000A4FF0010B022603274FF004084FF09D
:100230000509002400255B46524627A105A88DE844
:10024000C00301F05FFD00F01EFE2946204605AA0E
:1002500000F0CBFE00F0C2FF3DE00AF1010A0BF115
:10026000010B761C7F1C08F1010809F10109641CCF
:100270006D1C5B46524618A105A88DE8C00301F02D
:1002800041FDE9B2E0B205AA00F0AFFE00F0A6FF22
:10029000154800F02BF8BAF1090F01D14FF0000A10
:1002A000BBF1090F01D14FF0000B092E00D1002640
:1002B000092F00D10027B8F1090F01D14FF0000834
:1002C000B9F1090F01D14FF00009642C00D10024CD
:1002D000642D00D10025C0E72564256425642564CC
:1002E00025642E2564000000A0860100002100E0A6
:1002F000491C8142FCD3704770B504460D46164632
:1003000032462946204601F096F870BD70B5044685
:10031000254600224FF48051F748FFF7EDFF80217A
:10032000F64801F086F80021F54801F089F84FF40D
:100330000041F24801F07DF84FF40041EF4801F030
:1003400076F82946EE4801F07BF84FF40041EB487F
:1003500001F06FF84FF40041E84801F068F880219F
:10036000E64801F064F801221103E348FFF7C4FFF7
:1003700070BD70B505460C462846FFF7C7FF002242
:100380004FF48051DC48FFF7B7FF8021DB4801F0D4
:100390004EF82112DA4801F053F84FF40041D748E3
:1003A00001F047F84FF40041D44801F040F82146ED
:1003B000D34801F045F84FF40041D04801F039F836
:1003C0004FF40041CD4801F032F801221103CA4830
:1003D000FFF792FF70BD014600BFCA4A01FB02F061
:1003E00000E0401E0028FCD1704708B501214FF401
:1003F000907001F0F9FB4FF40040ADF800000320CD
:100400008DF8020010208DF803006946BB4800F00B
:1004100063FF4FF40070ADF8000003208DF8020078
:1004200010208DF803006946B44800F055FF802085
:10043000ADF8000003208DF8020010208DF80300B5
:100440006946AE4800F048FFFF20ADF800000320E9
:100450008DF8020010208DF803006946A84800F0CE
:100460003BFF8021A54800F0E2FF4FF40071A34854
:1004700000F0DDFF4FF40041A04800F0D8FF08BDB8
:1004800038B50121182001F0AFFB4FF48050ADF8D2
:10049000000002208DF8020010208DF8030069464C
:1004A000954800F019FF2020ADF8000002208DF8DB
:1004B000020010208DF803006946934800F00CFFFD
:1004C0002021914800F0B5FF002400E0641C4EF6A6
:1004D00060208442FAD320218B4800F0A8FF38BD69
:1004E00010B5FFF7CDFFFFF780FF0A20FFF773FF7E
:1004F0004FF40041E520FFF73CFF01210020FFF70A
:1005000038FF4FF480710120FFF733FF4FF4E061B3
:100510000220FFF72EFF41F230010320FFF729FFF1
:1005200000210420FFF725FF40F202210820FFF7F9
:1005300020FF00210920FFF71CFF00210A20FFF700
:1005400018FF00210C20FFF714FF00210D20FFF7FA
:1005500010FF00210F20FFF70CFF00211020FFF7F4
:1005600008FF00211120FFF704FF00211220FFF7F0
:1005700000FF00211320FFF7FCFE0A20FFF72BFFEE
:1005800041F2B0711020FFF7F4FE40F23711112054
:10059000FFF7EFFE0A20FFF71EFF40F2391112208D
:1005A000FFF7E7FE0A20FFF716FF4FF4E85113208C
:1005B000FFF7DFFE13212920FFF7DBFE0A20FFF7FC
:1005C0000AFF00212020FFF7D4FE00212120FFF7A1
:1005D000D0FE06213020FFF7CCFE40F20111312081
:1005E000FFF7C7FE03213220FFF7C3FE4FF48371EC
:1005F0003520FFF7BEFE40F602313620FFF7B9FE88
:1006000040F202313720FFF7B4FE40F20771382084
:10061000FFF7AFFE07213920FFF7ABFE4FF4C061B3
:100620003C20FFF7A6FE40F20B213D20FFF7A1FE84
:1006300000215020FFF79DFEEF215120FFF799FE8A
:1006400000215220FFF795FE40F23F115320FFF7A3
:1006500090FE4FF427416020FFF78BFE01216120BF
:10066000FFF787FE00216A20FFF783FE002180202C
:10067000FFF77FFE00218120FFF77BFE0021822013
:10068000FFF777FE00218320FFF773FE002184200F
:10069000FFF76FFE00218520FFF76BFE10219020F1
:1006A000FFF767FE00219220FFF763FE03219320EE
:1006B000FFF75FFE4FF488719520FFF75AFE002187
:1006C0009720FFF756FE00219820FFF752FE41F2D7
:1006D00018010320FFF74DFE40F273110720FFF7CA
:1006E00048FE10BD10B5FFF7FBFE10BD074908809E
:1006F000704707490880704700100140001401400E
:1007000000200140A0860100000C014000000020F4
:100710000200002070B504460D4621462020FFF758
:1007200028FE29462120FFF724FE70BD10B504469F
:100730008021F94800F07BFE2112F84800F080FE8D
:100740004FF40041F44800F074FE4FF40041F248C9
:1007500000F06DFE2146F14800F072FE4FF40041BA
:10076000ED4800F066FE4FF40041EB4800F05FFEFC
:1007700010BD10B52220FFF7C9FD00224FF48051B3
:10078000E748FFF7B9FD10BD2DE9F04707460C46D5
:10079000904600250026A946B94640F23F10001BAE
:1007A00081B24846FFF7B6FF00BF26E0FFF7E1FF42
:1007B00000260FE038F815000121B140084204D1AD
:1007C000D8480088FFF7B2FF03E0D7480088FFF75A
:1007D000ADFF761C102EEDD301221103D048FFF798
:1007E0008BFD09F1010000F0FF0940F23F10001BF2
:1007F00081B24846FFF78EFF6D1C182DD6D3BDE899
:10080000F08770B505460E461446A4F12000C4B228
:1008100004EB4400C54901EB001231462846FFF7BE
:10082000B3FF70BD2DE9F04105460C4600260027B8
:100830000CE0227805EB4501C906080E3946FFF7A2
:10084000E0FF07F1100087B2641C761C207808B125
:10085000012000E00020142E01D2012100E000213F
:100860000842E6D1BDE8F08110B50446B0A12046AB
:10087000FFF7D8FF10BD70B50546002440F23F11C8
:100880000020FFF747FFFFF774FF00BF03E0284693
:10089000FFF74CFF641CB4F5963FF8D30122110317
:1008A0009F48FFF729FD70BD2DE9F04104460D4634
:1008B00016461F46B44206DBA01B401C81B25020E6
:1008C000FFF757FD03E000215020FFF752FD2146BE
:1008D0005120FFF74EFDBD4206DBE81B401C81B2F4
:1008E0005220FFF746FD03E000215220FFF741FDB3
:1008F00029465320FFF73DFD29462046FFF70AFF12
:10090000BDE8F08110B54FF4A073F022591EEF201E
:10091000FFF7CAFF41F218010320FFF72AFD10BDBF
:1009200010B50446FFF725FF2046FFF7FFFE012222
:1009300011037B48FFF7E0FC10BD2DE9F0410746AD
:100940000E4615469846002440F23F10801B81B2A7
:100950003846FFF7DFFEB8F1000F10D1FFF709FFAF
:1009600000BF04E070480088FFF7E0FE641CAC4262
:10097000F8D3012211036A48FFF7BEFC0EE0002401
:100980000AE069480088FFF7CBFF781CC7B2314600
:100990003846FFF7BFFE641CAC42F2D3BDE8F081DD
:1009A0002DE9F04106460C4617461D4600232A460F
:1009B00021463046FFF7C1FFF119C8B200232A468D
:1009C0002146FFF7BAFF40F23F10001B81B201231E
:1009D0003A463046FFF7B1FF6019401E40F23F1221
:1009E000101A81B201233A463046FFF7A6FFBDE850
:1009F000F0812DE9F04706460F4690460320A0EB14
:100A000048090024454676E040F23F12D21B2A44B2
:100A100091B23219D0B2FFF77DFE43480088FFF74C
:100A20007FFF40F23F12D21B521B91B23219D0B25B
:100A3000FFF770FE3C480088FFF772FF40F23F125C
:100A4000D21B2A4491B2321BD0B2FFF763FE364864
:100A50000088FFF765FF40F23F12D21B521B91B294
:100A6000321BD0B2FFF756FE2F480088FFF758FF21
:100A700040F23F12D21B224491B27219D0B2FFF75A
:100A800049FE29480088FFF74BFF40F23F12D21B76
:100A9000121B91B27219D0B2FFF73CFE22480088B7
:100AA000FFF73EFF40F23F12D21B224491B2721B6D
:100AB000D0B2FFF72FFE1C480088FFF731FF40F24D
:100AC0003F12D21B121B91B2721BD0B2FFF722FE53
:100AD00015480088FFF724FFB9F1000F04DA06205B
:100AE00000EB8400814405E0601B0A2101EB8000DB
:100AF00081446D1E641CAC4286D9BDE8F08770B598
:100B000006460024002540F23F110020FFF702FEB8
:100B1000FFF72FFE00BF2CE0001401400020014031
:100B200000100140020000200000002046200008C4
:100B300020202020202020202020202020202020B5
:100B4000202020200000000000250FE056F824009F
:100B50000121A940084204D16E480088FFF7E6FD54
:100B600003E06D480088FFF7E1FD6D1C202DEDD3FB
:100B7000641CB4F5166FE7D3012211036748FFF731
:100B8000BBFB70BD70B5044625468021644800F06B
:100B900050FC00224FF480516048FFF7ADFB29461E
:100BA000604800F04DFC4FF400415D4800F041FC0E
:100BB0004FF400415A4800F03AFC70BD10B50021D6
:100BC0001020FFF7D6FB00211120FFF7D2FB0021F8
:100BD0001220FFF7CEFB00211320FFF7CAFB1420E1
:100BE000FFF7F9FB41F2B0711020FFF7C2FB40F2B2
:100BF00037111120FFF7BDFB0520FFF7ECFB40F29A
:100C000039111220FFF7B5FB0520FFF7E4FB4FF485
:100C1000E8511320FFF7ADFB13212920FFF7A9FBB3
:100C20000520FFF7D8FB40F273110720FFF7A1FB67
:100C300010BD10B540F273110720FFF79AFB10BDED
:100C400010B500210720FFF794FB10BD2DE9F041FE
:100C500007460C46154642F2107095FBF0F0C6B2FE
:100C600006F13000C2B2C4F5A07081B23846FFF779
:100C7000C8FD4FF47A7095FBF0F00A2190FBF1F279
:100C800001FB1200C6B206F13000C2B2A4F110009E
:100C9000C0F5A07081B23846FFF7B3FD642095FB24
:100CA000F0F00A2190FBF1F201FB1200C6B206F14E
:100CB0003000C2B2A4F12000C0F5A07081B2384665
:100CC000FFF79FFD0A2095FBF0F00A2190FBF1F25F
:100CD00001FB1200C6B206F13000C2B2A4F130002E
:100CE000C0F5A07081B23846FFF78BFD0A2095FB56
:100CF000F0F100FB1150C6B206F13000C2B2A4F10F
:100D00004000C0F5A07081B23846FFF77AFDBDE81B
:100D1000F0810000020000200000002000100140CF
:100D2000001401400020014000E0401E0028FCD1DA
:100D3000704708B50121082000F056FF012140202E
:100D400000F052FF0121084600F04EFF0121480546
:100D500000F057FF4FF44070ADF8000003208DF80D
:100D600002001C208DF803006946FB4800F0B4FA2D
:100D70000121022000F07FFB0320ADF800001020CD
:100D80008DF803006946F54800F0A6FA0121F44801
:100D900000F0FEFC0021F24800F0FAFC0121F048CE
:100DA00000F06DFC0020EF4988804BF6FF70C88092
:100DB000792008814FF48060488100018881EA48E9
:100DC0000860E74800F0DDFB08BD70B504460D463D
:100DD0000121E34800F077FC00BFE449E04800F05F
:100DE0004DFD0028F9D000227821DD4800F0C1FC3B
:100DF00000BFDF49DA4800F041FD0028F9D025B1F5
:100E00000021D74800F0AFFC03E04021D44800F0B7
:100E1000AAFC00BFD649891CD14800F02FFD00284C
:100E2000F8D02146CE4800F09EFC00BFD049891C76
:100E3000CB4800F023FD0028F8D00121C84800F07D
:100E40004EFC70BD10B50221C44800F0F2FA012139
:100E5000C24800F0ECFA42F21070FFF765FF012182
:100E6000BE4800F0E6FA42F21070FFF75DFF012184
:100E7000BA4800F0DCFA10BD10B54FF48061BD48EF
:100E800000F0E5FF10BD10B5FFF753FFFFF7DAFFE5
:100E9000002405E0B849085D0121FFF796FF641CB6
:100EA000192CF7D3FFF7E8FF10BD70B50346802B70
:100EB00001DA402900DB70BDCC1701EB5474E4105B
:100EC00003EBC414AB4D2C5D0A46CD1701EB5575F1
:100ED000ED10A1EBC5060125B5402C43E5B208464F
:100EE000CC1701EB5474E41003EBC414A14E355538
:100EF00000BFE0E72DE9FC4F04460D4616461F46AD
:100F0000791B01D40A4601E0C1F10002301B01D473
:100F1000034600E043429A4201DD012200E0002244
:100F20000192019828B1A1462C464D46B1463E4655
:100F30004F46B44205DDA14634464E46A9463D46DD
:100F40004F46301B00F0FF08781B01D4014600E03B
:100F50004142C9B20091404608EBD07149104FFAA6
:100F600081FABD4202DA4FF0010B01E04FF0FF3B86
:100F70001BE0019820B121462846FFF796FF03E0C9
:100F800029462046FFF791FF0098AAEB00004FFA90
:100F900080FABAF1000F06DA05EB0B00C5B20AEBD6
:100FA00008004FFA80FA601CC4B2B442E1DBBDE82D
:100FB000FC8F2DE9F04304460D469046994626469F
:100FC0000DE02F4605E039463046FFF76EFF781CEE
:100FD000C7B205EB0900B842F5DC701CC6B204EBE1
:100FE0000800B042EDDCBDE8F0832DE9F84F07467C
:100FF0008B4615464FF00008C146C246642F0CDCF4
:10100000002F0ADBBBF1640F07DCBBF1000F04DB30
:10101000284600F0FDFE072801D0BDE8F88F202308
:101020001C2219460020FFF765FF24231C222021E3
:101030001046FFF75FFF2423202219461C20FFF7EC
:1010400059FF2C23202224211046FFF753FF2C2385
:101050001C2219462020FFF74DFF30231C222C2193
:101060001046FFF747FF3023002219461C20FFF7E8
:1010700041FF2023002230211046FFF73BFFC7EB42
:10108000C7008000642190FBF1F0C0B2102302463B
:10109000202100900020FFF78CFF30231C221946EE
:1010A0000020FFF727FF34231C2230211046FFF7D2
:1010B00021FF3423202219461C20FFF71BFF3C236D
:1010C000202234211046FFF715FF3C231C2219462D
:1010D0002020FFF70FFF40231C223C211046FFF782
:1010E00009FF4023002219461C20FFF703FF30238D
:1010F000002240211046FFF7FDFEC7EBC70080002D
:10110000642190FBF1F0C0B2102302463021009020
:101110000020FFF74EFF5CE028782E2830D0002416
:1011200016E0D04666010EE02878303806EBC01095
:101130001249095C09EB040008EBC0100D4A115478
:1011400008F10108761C601C4001B042ECDC641C14
:10115000042CE6DB2DE00000000C014000180140EB
:1011600000540040B4090020A086010001000300E3
:101170008200070084050020870900200400002069
:10118000002414E0D04666010CE006F5A0601F497B
:10119000095C09EB040008EBC0101D4A115408F16A
:1011A0000108761C601C4001B042EEDC641C042C7B
:1011B000E8DB6D1C0AF1210A0AF12100802803DB1B
:1011C0004FF0000A09F10409B9F1040F01D14FF001
:1011D000210A287800289FD100BF1EE770B500259E
:1011E00005E00C49485D0121FFF7EFFD6D1C032D63
:1011F000F7D3002405E00649085D0021FFF7E5FD6F
:10120000641CB4F5806FF6D370BD000004000020AC
:10121000840500208409002010B50446C248844299
:1012200008D10121042000F0F9FC0021042000F085
:10123000F5FC46E0BD48844208D10121082000F0B9
:10124000EDFC0021082000F0E9FC3AE0B8488442B7
:1012500008D10121102000F0E1FC0021102000F055
:10126000DDFC2EE0B348844208D10121202000F0AB
:10127000D5FC0021202000F0D1FC22E0AE488442C1
:1012800008D10121402000F0C9FC0021402000F0DD
:10129000C5FC16E0A948844208D10121802000F055
:1012A000BDFC0021802000F0B9FC0AE0A448844283
:1012B00007D10121801500F0B1FC0021A01500F03C
:1012C000ADFC10BD10B50121084600F0A7FC0021BF
:1012D000012000F0A3FC10BD2DE9F04102460025DD
:1012E0000026002000230024002791F803C00CF002
:1012F0000F0591F803C01CF0100F03D091F802C045
:101300004CEA050591F800C0BCF1000F31D014681B
:1013100000202BE04FF0010C0CFA00F3B1F800C0F4
:101320000CEA03069E4220D183004FF00F0C0CFA0A
:1013300003F7BC4305FA03FC4CEA040491F803C02C
:10134000BCF1280F06D14FF0010C0CFA00FCC2F8DA
:1013500014C00AE091F803C0BCF1480F05D14FF06A
:10136000010C0CFA00FCC2F810C0401C0828D1D3B4
:101370001460B1F800C0BCF1FF0F34DD54680020E8
:101380002EE000F1080C4FF0010808FA0CF3B1F858
:1013900000C00CEA03069E4221D183004FF00F0CDF
:1013A0000CFA03F7BC4305FA03FC4CEA040491F879
:1013B00003C0BCF1280F05D100F1080C08FA0CF8A5
:1013C000C2F8148091F803C0BCF1480F07D100F1B6
:1013D000080C4FF0010808FA0CF8C2F81080401C05
:1013E0000828CED35460BDE8F0814FF6FF7101802C
:1013F000022181700421C170704702460020936869
:101400000B4201D0012000E00020704701468868AF
:1014100080B2704702460020D3680B4201D0012001
:1014200000E0002070470146C86880B27047016143
:101430007047416170470AB1016100E04161704746
:10144000C16070474FF480320A43826181618261DA
:10145000826982697047024600203A4B18684FF64D
:101460008073184040EA02100843364B18607047FA
:101470003549C8617047F0B50A46002300240021B1
:101480000025304E7168C0F3034583B200F4401666
:10149000B6F5401F08D121F070612A4E766826F01B
:1014A0007066284F7E6012E000F48016B6F5801F4B
:1014B00006D1032606FA05F4A14341F0706106E067
:1014C000460D360103FA06F6B14341F0706122B1D0
:1014D000460D360103FA06F631431A4E7160F0BD2F
:1014E00030B500228B071C0F0F2303FA04F2154BB3
:1014F00008338C1053F824309343124C08348D1069
:1015000044F8253023468C1053F824308C07240FE0
:1015100000FA04F423430B4C08348D1044F82530B2
:1015200030BD0A490860704700080140000C0140C6
:10153000001001400014014000180140001C01404F
:10154000002001400000014000002042DC00204259
:1015500010B50446ED48844209D10121480500F048
:101560006AFB00214FF4001000F065FB08E0012148
:10157000880500F060FB00214FF4800000F05BFB69
:1015800010BD2DE9F04385B004460D460026B14656
:101590000427DFF87C83A6884FF6C07006406846B3
:1015A00000F0B5FADDF80880DA48B8FBF0F01FFA71
:1015B00080F946EA0906A68020884FF6FE710840A9
:1015C00020800026D449286888420CD8286840002A
:1015D000B8FBF0F087B2042F00DA04273E4309F18C
:1015E0000100208427E0E888A0F53F41FF3906D1BB
:1015F000286800EB4000B8FBF0F087B209E02868EB
:1016000000EBC00101EB0010B8FBF0F087B247F42B
:1016100080473805000D01D147F0010747F400402D
:1016200006434FF4967009FB00F04FF47A7190FB7B
:10163000F1F0401C2084A683208840F00100208027
:1016400026884FF6F5300640A88869890843064386
:101650002680A88929890843208105B0BDE8F08348
:1016600041F288310160002181804BF6FF71C18019
:101670000021018141814FF480418181704721B176
:10168000028842F00102028004E002884FF6FE73F5
:101690001A400280704721B1828842F40062828041
:1016A00004E082884FF2FF731A408280704721B1B4
:1016B000828842F48052828004E082884EF6FF7372
:1016C0001A408280704721B1028842F48072028001
:1016D00004E002884FF6FF631A400280704721B190
:1016E000028842F40072028004E002884FF6FF5341
:1016F0001A400280704721B1028842F48062028061
:1017000004E002884FF6FF331A40028070470A4611
:10171000002181894FF60173194002F0FE0319433D
:101720008181704721B1828942F00102828104E007
:1017300082894FF6FE731A408281704721B1028878
:1017400042F04002028004E002884FF6BF731A4064
:10175000028070471AB183880B43838002E083883C
:101760008B4383807047018270470146088AC0B26C
:10177000704712B141F0010102E04FF6FE731940CB
:10178000018270470246002313460B4418887047B5
:1017900021B1028842F40042028003E00288C2F3D1
:1017A0000E0202807047B1F5005F04D1028842F456
:1017B0000052028004E002884DF6FF731A40028056
:1017C000704721B1028842F48052028004E002880E
:1017D0004EF6FF731A4002807047B1F5006F04D1D6
:1017E000028842F40062028004E002884FF2FF7334
:1017F0001A400280704721B1028842F02002028024
:1018000004E002884FF6DF731A40028070470146F9
:10181000088B0012704721B1028842F0100202804A
:1018200004E002884FF6EF731A400280704721B936
:10183000028842F08002028004E002884FF67F7343
:101840001A4002807047B1F5804F05D0828B4BF66D
:10185000FF731A40828303E0828B42F480428283CA
:10186000704710B501460020002300228B8A0A8BA6
:10187000120443EA020424F07F4010BD70B5024612
:101880000024002500230020958A138B1B0445EAC1
:10189000030626F07F448C4201D1012000E00020A5
:1018A00070BD30B503460020002400221A460C0FFC
:1018B00021F07F410CB1143201E0090C1832156897
:1018C0000D4201D0012000E0002030BD002221F0B7
:1018D0007F42D3438382704730B502460020002305
:1018E000948801F0E06504EA154321F07F41948A71
:1018F0000C4202D00BB1012000E0002030BD0022DC
:1019000021F07F42D343838270470000005400409F
:1019100000127A0040420F00A0860100DB480068F8
:1019200040F00100D949086008464068D84908409D
:10193000D649486008460068D6490840D34908603F
:101940000846006820F4802008600846406820F4BB
:10195000FE0048604FF41F0088607047CB4909685B
:1019600021F48031C94A11601146096821F48021AF
:101970001160B0F5803F03D0B0F5802F0ED106E0A6
:10198000C249096841F48031C04A116007E0BF498B
:10199000096841F4A021BD4A116000E000BF00BF0A
:1019A000704710B501460022002300204A11012A89
:1019B00002D1B64C236806E0022A02D1B34C236A56
:1019C00001E0B24C636A01F01F02012494401C4202
:1019D00001D0012000E0002010BD70B500240025DA
:1019E000002600BF3120FFF7DCFF0646641CB4F57B
:1019F000A06F01D0002EF5D03120FFF7D2FF08B143
:101A0000012500E00025284670BD014600209F4AC0
:101A1000106820F0F80040EAC100106070479E494D
:101A20000860704702460020984B586820F47C10EC
:101A300042EA01031843954B58607047964908667F
:101A4000704701460020914A506820F00300084387
:101A5000506070478D48406800F00C0070470146A8
:101A600000208A4A506820F0F00008435060704718
:101A700001460020854A506820F4E0600843506029
:101A8000704701460020814A506820F4605040EAC7
:101A9000C1005060704729B17C4A527A02437B4BA7
:101AA0005A7204E0794A527A8243784B5A727047EC
:101AB0007A490860704701460020744A506820F453
:101AC00040400843506070470021754A11706F4ACA
:101AD00082F82010012802D0042808D103E0012157
:101AE0006F4A117004E005216D4A117000E000BFDB
:101AF00000BF70476B49086070476449096A014339
:101B0000624A11627047674944390860704730B5CE
:101B100000210022002400235C4D6D6805F00C01BB
:101B200021B1042905D0082923D105E05E4D0560C7
:101B300022E05D4D05601FE0544D6D6805F47012A4
:101B4000524D6D6805F48034022505EB92421CB9B4
:101B5000564D554305600BE04C4D6D6815F4003F44
:101B600003D0524D5543056002E04F4D554305608B
:101B700002E04D4D056000BF00BF444D6D6805F0AB
:101B8000F00109094A4D6B5C0568DD4045603F4D39
:101B90006D6805F4E061090A454D6B5C4568DD4000
:101BA00085603A4D6D6805F46051C90A404D6B5C23
:101BB0004568DD40C560354D6D6805F44041890BD1
:101BC0003C4D6B5CC568B5FBF3F5056130BD29B1D3
:101BD0002E4A526902432D4B5A6104E02B4A526946
:101BE00082432A4B5A61704729B1284A92690243BD
:101BF000264B9A6104E0254A92698243234B9A61FD
:101C0000704729B1214AD2690243204BDA6104E0CE
:101C10001E4AD26982431D4BDA61704729B11B4AC3
:101C2000D2680243194BDA6004E0184AD268824352
:101C3000164BDA60704729B1144A12690243134BFC
:101C40001A6104E0114A12698243104B1A6170470D
:101C500014494039086070470F49C86470470B4900
:101C6000C87170470948406A40F08070074948626F
:101C7000704701460020054A92680A4201D00120BF
:101C800000E0002070470149887270470010024050
:101C90000000FFF8FFFFF6FE00004242D80042427B
:101CA000201002408004424200127A0000093D00E8
:101CB000A0090020B009002070470B4880470B495D
:101CC00081F308880A480047FEE7FEE7FEE7FEE7E3
:101CD000FEE7FEE7FEE7FEE7FEE7FEE7054806490A
:101CE000064A074B70470000B91C00082810002066
:101CF00031010008280A002028100020280C0020AC
:101D0000280C00200FB41CB5074B06AA7B4469467B
:101D10000090059800F021F90020694600F030F9A4
:101D20001CBC5DF814FB0000710200002DE9F041BD
:101D300004460E46002020622046E168884738B3FA
:101D4000252806D0D4E901219047206A401C206252
:101D5000F2E7E168204600278847050018D0A5F182
:101D60004100192802D820354FF400673246294631
:101D700020462760FEF73AFA40B1012804D0F61D4C
:101D800026F007060836D7E7361DD5E72846D9E7F7
:101D9000206ABDE8F08100002DE9F04106460024EC
:101DA00010687529314616A511D0AFF300800028C0
:101DB00003DAC0F1000013A507E031688A0701D5F6
:101DC00011A502E0490704D510A5012401E0AFF3F5
:101DD000008000210A2306F1240707E0B0FBF3F29C
:101DE00003FB1200303078541046491C0028F5D10E
:101DF00023462A463046BDE8F04100F04DB80000C9
:101E0000000000002D0000002B000000200000005A
:101E100010B5431C02E010F8011B71B18107FAD123
:101E20004FF0013202C88C1A8C4314EAC211F9D067
:101E3000C01A0A0603D0C01E10BDC01A10BD0A0485
:101E400001D0801E10BD0902FCD0401E10BD4FF015
:101E500000020429C0F0128010F0030C00F09780FB
:101E6000CCF1040CBCF1020F18BF00F8012BA8BF85
:101E700020F8022BA1EB0C0100F089B85FEAC17CCD
:101E800024BF00F8012B00F8012B48BF00F8012BFC
:101E900070477047704770472DE9F0470D469946E7
:101EA0009246044600F124080168880604D5E069DA
:101EB00021F01001216000E00120A84202DDA0EB2A
:101EC000050700E00027A16907EB050202EB090006
:101ED000A1EB0000A0612078C00602D42046AFF339
:101EE0000080002608E0D4E901211AF80600904796
:101EF000206A401C761C20624E45F4DB2078C00628
:101F00000AD52046AFF3008006E0D4E90121302055
:101F10009047206A401C2062381EA7F10107F4DCBC
:101F200007E0D4E9012118F805009047206A401C19
:101F30002062281EA5F10105F3DC2046AFF30080E6
:101F40002078000602D50220BDE8F0870120FBE7DB
:101F500001694A1C02610878704700B58FB0CDE96D
:101F600001310021059105497944CDE9031011465D
:101F70006846FFF7DBFE0FB000BD0000E5FFFFFF86
:101F80000A6802F8010B0A6070474FF0000200B5C2
:101F9000134694469646203922BFA0E80C50A0E88C
:101FA0000C50B1F12001BFF4F7AF090728BFA0E83A
:101FB0000C5048BF0CC05DF804EB890028BF40F806
:101FC000042B08BF704748BF20F8022B11F0804F48
:101FD00018BF00F8012B7047754600F029F8AE468F
:101FE00005006946534620F00700854618B020B525
:101FF000FFF774FEBDE820404FF000064FF00007E9
:102000004FF000084FF0000B21F00701AC46ACE8A0
:10201000C009ACE8C009ACE8C009ACE8C0098D460D
:1020200070470446AFF300802046FEF7F1F8000049
:1020300000487047C409002001491820ABBEFEE7E4
:1020400026000200704700000000000000000000B1
:102050000000000000000000000000000000000080
:102060000000000000000000000000000000000070
:10207000000000000000000080018001800180015C
:102080008001800180018001800180018001800148
:1020900080010000000080018001000000000000BD
:1020A00000000000000000000000CC00CC00CC00CC
:1020B000CC00CC00CC0000000000000000000000BC
:1020C0000000000000000000000000000000000010
:1020D0000000000000000000000000000000000000
:1020E0000000600C600C600C30063006FE1FFE1F06
:1020F000300638071803FE1FFE1F180318038C0153
:102100008C018C01000000008000E003F80F9C0EA1
:102110008C1C8C188C009800F801E007800E801C45
:102120008C188C189C18B80CF00FE003800080000D
:102130000000000000000000000000000E181B0C52
:10214000110C11061106110311039B018E01C038F9
:10215000C06C60446044304430441844186C0C38FF
:102160000000000000000000E001F003380718063E
:1021700018063003F001F000F8009C310E33061E03
:10218000061C061C063FFC73F02100000000000046
:10219000000000000000000000000C000C000C001B
:1021A0000C000C000C00000000000000000000000B
:1021B000000000000000000000000000000000001F
:1021C0000000000000000000000200038001C000C9
:1021D000C00060006000300030003000300030008F
:1021E00030003000300060006000C000C00080019E
:1021F000000300020000000020006000C000800119
:102200008001000300030006000600060006000629
:102210000006000600060003000380018001C000E4
:10222000600020000000000000000000000000002E
:102230000000C000C000D806F807E00130033807EE
:10224000000000000000000000000000000000008E
:10225000000000000000000000000000000000007E
:10226000000080018001800180018001FC3FFC3F73
:1022700080018001800180018001000000000000D9
:10228000000000000000000000000000000000004E
:10229000000000000000000000000000000000003E
:1022A000000000000000000080018001000100012A
:1022B000800000000000000000000000000000009E
:1022C0000000000000000000000000000000E00727
:1022D000E007000000000000000000000000000017
:1022E00000000000000000000000000000000000EE
:1022F00000000000000000000000000000000000DE
:102300000000000000000000C000C000000000004D
:102310000000000000000000000C000C0006000699
:102320000006000300030003800380018001800198
:10233000C000C000C000600060000000000000009D
:102340000000000000000000E003F007380E180C49
:102350000C180C180C180C180C180C180C180C185D
:102360000C18180C380EF007E00300000000000005
:10237000000000000000000000018001C001F00129
:102380009801880180018001800180018001800125
:1023900080018001800180018001000000000000B8
:1023A0000000000000000000E003F80F180C0C18FB
:1023B0000C1800180018000C000600038001C00073
:1023C000600030001800FC1FFC1F0000000000002F
:1023D0000000000000000000E001F807180E0C0CDF
:1023E0000C0C000C0006C003C007000C00180018FD
:1023F0000C180C18180CF807E0030000000000008F
:102400000000000000000000000C000E000F000F94
:10241000800DC00C600C600C300C180C0C0CFC3FD8
:10242000FC3F000C000C000C000C00000000000041
:102430000000000000000000F80FF80F180018005E
:102440000C00EC03FC071C0E001C00180018001800
:102450000C181C0C180EF807E00300000000000028
:102460000000000000000000C007F00F381C181822
:1024700018000C00CC03EC0F3C0E1C1C0C180C18A4
:102480000C18181C380EF007E003000000000000D4
:102490000000000000000000FC1FFC1F000C0006F4
:1024A0000006000380038001C001C000E00060005E
:1024B00060007000300030003000000000000000BC
:1024C0000000000000000000E003F007380E180CC8
:1024D000180C180C3806F007F007180C0C180C181C
:1024E0000C180C18380CF80FE00300000000000076
:1024F0000000000000000000E003F007380E1C0C94
:102500000C180C180C181C1C381EF81BE0190018AD
:10251000000C000C1C0EF807F00100000000000089
:1025200000000000000000000000000000000000AB
:102530000000800180010000000000000000000099
:102540000000000000008001800100000000000089
:10255000000000000000000000000000000000007B
:102560000000800180010000000000000000000069
:1025700000000000000080018001000100018000D7
:10258000000000000000000000000000000000004B
:102590000000000000000010001C800FE003F800A5
:1025A0001800F800E003800F001C0010000000007D
:1025B000000000000000000000000000000000001B
:1025C000000000000000F81F000000000000F81FDD
:1025D00000000000000000000000000000000000FB
:1025E00000000000000000000000000000000000EB
:1025F00000000000000008003800F001C007001FC4
:102600000018001FC007F00138000800000000009B
:102610000000000000000000E003F80F180C0C1888
:102620000C180018000C000600038001C000C00058
:10263000C00000000000C000C0000000000000005A
:1026400000000000000000000000E007181804204F
:10265000C229224A11440944094409440922111398
:10266000E20C024004201818E007000000000000FF
:10267000000000000000000080038003C006C006C8
:10268000C006600C600C301830183018F83FF83F66
:102690001C700C600C6006C006C00000000000004A
:1026A0000000000000000000FC03FC0F0C0C0C18E4
:1026B0000C180C180C0CFC07FC0F0C180C300C3010
:1026C0000C300C300C18FC1FFC0700000000000050
:1026D0000000000000000000C007F01F38381C3068
:1026E0000C700660060006000600060006000600E4
:1026F00006600C701C30F01FE007000000000000B6
:102700000000000000000000FE03FE0F060E061889
:102710000618063006300630063006300630063021
:1027200006180618060EFE0FFE030000000000004B
:102730000000000000000000FC3FFC3F0C000C000B
:102740000C000C000C00FC1FFC1F0C000C000C000B
:102750000C000C000C00FC3FFC3F000000000000DF
:102760000000000000000000F83FF83F18001800CB
:10277000180018001800F81FF81F1800180018009B
:1027800018001800180018001800000000000000D1
:102790000000000000000000E00FF83F3C780E60F1
:1027A00006E007C00300030003FE03FE03C007C0EA
:1027B00006C00EC03CF0F83FE00F00000000000033
:1027C00000000000000000000C300C300C300C3019
:1027D0000C300C300C30FC3FFC3F0C300C300C301B
:1027E0000C300C300C300C300C30000000000000BD
:1027F00000000000000000008001800180018001D5
:1028000080018001800180018001800180018001C0
:102810008001800180018001800100000000000033
:102820000000000000000000000600060006000690
:102830000006000600060006000600060006000668
:10284000180618063807F003E00100000000000039
:10285000000000000000000006300618060C060606
:1028600006038601C60066007600DE008E010603C0
:102870000606060C06180630066000000000000080
:1028800000000000000000001800180018001800E8
:102890001800180018001800180018001800180078
:1028A000180018001800F81FF81F000000000000B2
:1028B00000000000000000000EE01EF01EF01EF000
:1028C00036D836D836D836D866CC66CC66CCC6C6AE
:1028D000C6C6C6C6C6C686C386C3000000000000C2
:1028E00000000000000000000C301C303C303C3088
:1028F0006C306C30CC30CC308C310C330C330C362B
:102900000C360C3C0C3C0C380C3000000000000075
:102910000000000000000000E007F81F1C380E70E7
:10292000066003C003C003C003C003C003C003C0EC
:1029300006600E701C38F81FE00700000000000061
:102940000000000000000000FC0FFC1F0C380C30E1
:102950000C300C300C300C18FC1FFC070C000C0069
:102960000C000C000C000C000C000000000000002B
:102970000000000000000000E007F81F1C380E7087
:10298000066003E003C003C003C003C003C007E048
:1029900006630E3F1C3CF83FE0F700C0000000005B
:1029A0000000000000000000FE0FFE1F0638063089
:1029B000063006300638FE1FFE0706030606060C24
:1029C00006180618063006300660000000000000F9
:1029D0000000000000000000E003F80F1C0C0C18C1
:1029E0000C180C001C00F803E00F001E0038063025
:1029F00006300E301C1CF80FE0070000000000003D
:102A00000000000000000000FE7FFE7F80018001CA
:102A100080018001800180018001800180018001AE
:102A20008001800180018001800100000000000021
:102A300000000000000000000C300C300C300C30A6
:102A40000C300C300C300C300C300C300C300C30A6
:102A50000C300C301818F81FE007000000000000D0
:102A60000000000000000000036006300630063061
:102A70000C180C180C18180C180C380E30063006F0
:102A8000700760036003C001C00100000000000087
:102A900000000000000000000360C361C361C36167
:102AA0006633663366336633663366336C1B6C1B82
:102AB0006C1B2C1A3C1E380E380E00000000000063
:102AC00000000000000000000FE00C70183030180B
:102AD000700C600EC00780038003C003E006700C1A
:102AE000301C18180C300E6007E0000000000000D9
:102AF000000000000000000003C006600C301C381D
:102B00003818300C6006E007C003800180018001A6
:102B10008001800180018001800100000000000030
:102B20000000000000000000FC7FFC7F006000301F
:102B30000018000C000600038001C0006000300097
:102B400018000C000600FE7FFE7F00000000000061
:102B50000000000000000000E003E00360006000EF
:102B60006000600060006000600060006000600065
:102B70006000600060006000600060006000600055
:102B8000E003E0030000000030003000600060005F
:102B90006000C000C000C000C00180018001800151
:102BA0000003000300030006000600000000000010
:102BB0000000000000000000E003E0030003000349
:102BC00000030003000300030003000300030003ED
:102BD00000030003000300030003000300030003DD
:102BE000E003E003000000000000C001C00160033A
:102BF0006003600330063006180C180C000000005B
:102C000000000000000000000000000000000000C4
:102C100000000000000000000000000000000000B4
:102C200000000000000000000000000000000000A4
:102C30000000000000000000FFFFFFFF0000000098
:102C400000000000000000000C000C000C000C0054
:102C50000C000C000000000000000000000000005C
:102C60000000000000000000000000000000000064
:102C70000000000000000000000000000000000054
:102C80000000F003F8071C0C0C0C000FF00FF80C00
:102C90000C0C0C0C1C0FF80FF018000000000000CA
:102CA00000000000000000001800180018001800C4
:102CB0001800D803F80F380C181818181818181816
:102CC00018181818380CF80FD8030000000000007E
:102CD00000000000000000000000000000000000F4
:102CE0000000C003F007300E180C18001800180080
:102CF0001800180C300EF007C003000000000000A0
:102D00000000000000000000001800180018001863
:102D10000018C01BF01F301C1818181818181818A5
:102D200018181818301CF01FC01B0000000000000D
:102D30000000000000000000000000000000000093
:102D40000000C003F00F300C1818F81FF81F18000F
:102D500018003818301CF00FC007000000000000F9
:102D60000000000000000000800FC00FC000C00085
:102D7000C000F007F007C000C000C000C000C000E5
:102D8000C000C000C000C000C00000000000000083
:102D90000000000000000000000000000000000033
:102DA0000000E00DF80F180E0C0C0C0C0C0C0C0CA9
:102DB0000C0C0C0C180EF80FE00D000C0C0C1C0683
:102DC000F807F001000000001800180018001800B3
:102DD0001800D807F80F381C1818181818181818E1
:102DE00018181818181818181818000000000000F3
:102DF0000000000000000000C000C0000000000053
:102E00000000C000C000C000C000C000C000C00082
:102E1000C000C000C000C000C000000000000000F2
:102E20000000000000000000C000C0000000000022
:102E30000000C000C000C000C000C000C000C00052
:102E4000C000C000C000C000C000C000C000C00082
:102E5000F8007800000000000C000C000C000C00D2
:102E60000C000C0C0C060C038C01CC006C00FC005C
:102E70009C018C030C030C060C0C000000000000ED
:102E80000000000000000000C000C000C000C00042
:102E9000C000C000C000C000C000C000C000C00032
:102EA000C000C000C000C000C00000000000000062
:102EB0000000000000000000000000000000000012
:102EC00000007C3CFF7EC7E383C183C183C183C113
:102ED00083C183C183C183C183C10000000000009E
:102EE00000000000000000000000000000000000E2
:102EF00000009807F80F381C181818181818181818
:102F000018181818181818181818000000000000D1
:102F100000000000000000000000000000000000B1
:102F20000000C003F00F300C1818181818181818E3
:102F300018181818300CF00FC00300000000000033
:102F40000000000000000000000000000000000081
:102F50000000D803F80F380C18181818181818188B
:102F600018181818380CF80FD80318001800180093
:102F70001800180000000000000000000000000021
:102F80000000C01BF01F301C18181818181818184B
:102F900018181818301CF01FC01B00180018001853
:102FA00000180018000000000000000000000000F1
:102FB0000000B007F0037000300030003000300037
:102FC0003000300030003000300000000000000011
:102FD00000000000000000000000000000000000F1
:102FE0000000E003F003380E180C3800F003C007AF
:102FF000000C180C380EF007E00300000000000081
:10300000000000000000000000008000C000C000C0
:10301000C000F007F007C000C000C000C000C00042
:10302000C000C000C000C007800700000000000012
:103030000000000000000000000000000000000090
:103040000000181818181818181818181818181830
:1030500018181818381CF01FE019000000000000B4
:103060000000000000000000000000000000000060
:1030700000000C18180C180C180C3006300630061E
:10308000600360036003C001C00100000000000095
:103090000000000000000000000000000000000030
:1030A0000000C141C141C36163636363636336363A
:1030B000363636361C1C1C1C1C1C00000000000090
:1030C0000000000000000000000000000000000000
:1030D00000001C38381C300C60066003600360037D
:1030E00060036006300C381C1C3800000000000033
:1030F00000000000000000000000000000000000D0
:1031000000001830301830187018600C600CE00C9B
:10311000C006C00680038003800380018001C001D7
:10312000F00070000000000000000000000000003F
:103130000000FC1FFC1F000C000600038001C00003
:10314000600030001800FC1FFC1F000000000000A1
:10315000000000000000000000038001C000C0006B
:10316000C000C000C000C00060006000300060000F
:103170004000C000C000C000C000C000C00080010E
:103180000003000000000000800180018001800138
:103190008001800180018001800180018001800127
:1031A0008001800180018001800180018001800117
:1031B00080018001000000006000C000C0018001AB
:1031C00080018001800180010003000300060003EC
:1031D0000001800180018001800180018001C00028
:1031E000600000000000000000000000000000007F
:1031F000000000000000F010F81F080F00000000A1
:1032000000000000000000000000000000000000BE
:10321000000000000000000038320008000000201C
:10322000B40900006C01000838350008B40900201A
:1032300074060000D00100080006150000FFFF0022
:1032400001200E07F000000FF800001E3C00003CBB
:103250000410051E000038040320780E04212821E4
:1032600030433C1C40431FF85000042701C00001BC
:103270004301E004120304120704121F04121D0488
:103280008319E01C012E04012A01160F0050061FAD
:10329000FC00003EFC16780062000411D853003C8C
:1032A0000412780411DC6200B011E413078040516D
:1032B0002F123E23433FFE04012A80358056FC80B6
:1032C000557CA21880167C1C15A44303F80C9200B0
:1032D000A043180EB021B821C021C8062D0F80537D
:1032E0000038DC21E015C052010421701307B850EA
:1032F0001120120E04121E04123C041238084B78DE
:10330000385261043144A10401297F257C210483C2
:103310001C0004523C971A3F101A3F9C167C0497DD
:10332000783C98420E041A30A85670B443787C2C2E
:103330001A1FD0062A070042F00465D4A5D825DC60
:1033400029D4392029E811110211780421182120EB
:1033500035800A2CF884437FFF047949A50125981C
:10336000CA707839E482C0AC430380B0310451475D
:103370000D2F00034EF8FC03C3381E042D100483E8
:103380003E7C24210C567C7043700E045A78841EB7
:103390007C01034F3FFC0404033003C080215C53D5
:1033A000783E5CD10425FC29046160A5B4E5B8052C
:1033B00032040142015E1C04045A3EC801CE0110D1
:1033C0000F3E0A0A0A04001C2222221C001E2002B0
:1033D0001004003E2A01311862340C311E412F11B5
:1033E0001D0C08121400060830080675031D390567
:1033F000324003000A3080404020201008847E9133
:10340000218A401618342C0800282C3414003A0065
:1034100018A4A47C003C0404381BCC0A3E04083EDB
:10342000003C12123CEF041C062000080002F203CC
:10343000101108048442221111182844840A122110
:10344000C0C11504054A080020803331DC21018DFC
:10345000EE036F4801770710071AA3C4484830FBF2
:103460006C07888445422110B7030214924A210157
:10347000A53DE11F30044020606C0C0E11101010AF
:1034800070381808040402020101EE0753021047C5
:103490001006FE41605088265C0A0505081021A22E
:1034A0004428F00E060A1124DA42034B001914FFD7
:1034B00080C02030180CE67F2120C00080E0302042
:1034C000161E0604020E066A0D18F206456900165D
:1034D0001943242810118A8CC44222A11110880497
:1034E000430010000400493004F01E07862F060335
:1034F0003508063E019C0006293F10080402B80F5B
:103500003E0E0321043C1C1040AED580A83FD300E2
:10351000408D142000A1C8DA1281CFD9F1DB40A47C
:10352000A6AF0809200402030404000900060708E6
:08353000090204060800000076
:0400000508000131BD
:00000001FF
