:020000040800F2
:1000000000040020F3280008012900080329000843
:100010000529000807290008092900080000000038
:100020000000000000000000000000000B29000894
:100030000D290008000000000F2900081129000800
:1000400013290008132900081329000813290008A0
:100050001329000813290008132900081329000890
:100060001329000813290008132900081329000880
:100070001329000813290008132900081329000870
:100080001329000813290008132900081329000860
:100090001329000813290008132900081329000850
:1000A0001329000813290008132900081329000840
:1000B0001329000813290008132900081329000830
:1000C0001329000813290008132900081329000820
:1000D00013290008530500081329000813290008F4
:1000E0001329000813290008132900081329000800
:1000F00013290008132900081329000813290008F0
:1001000013290008132900081329000813290008DF
:1001100013290008132900081329000813290008CF
:1001200013290008132900081329000813290008BF
:1001300000F002F800F05FF80AA090E8000C82449A
:100140008344AAF10107DA4501D100F054F8AFF277
:10015000090EBAE80F0013F0010F18BFFB1A43F0A5
:1001600001031847903D0000B03D00000A444FF0E5
:10017000000C10F8013B13F0070408BF10F8014B06
:100180001D1108BF10F8015B641E05D010F8016B4B
:10019000641E01F8016BF9D113F0080F1EBF10F8AF
:1001A000014BAD1C0C1B09D16D1E58BF01F801CBD2
:1001B000FAD505E014F8016B01F8016B6D1EF9D555
:1001C0009142D6D37047000000230024002500266A
:1001D000103A28BF78C1FBD8520728BF30C148BFAA
:1001E0000B607047642902F0F383002070471FB54D
:1001F0001FBD10B510BD02F0EDFC1146FFF7F7FF73
:1002000000F0D2F902F00BFD03B4FFF7F2FF03BCDC
:1002100002F010FD0020FD49096841F48031FB4ADD
:10022000116000BFF9490968490CFBD0F849F74A49
:1002300051601146496841F480315160F5490968BF
:1002400041F03201F34A1160F049096841F08071D0
:10025000EE4A116000BFED490968490EFBD0EB4939
:10026000496841F00201E94A516005E0E7494968FF
:10027000C1F3870000F003000228F7D1704708B5EA
:1002800001215C2002F0FAF80420ADF80000012002
:100290008DF8020010208DF803006946DE4801F059
:1002A00065FC0320ADF800006946DC4801F05EFC07
:1002B0002020ADF800006946D94801F057FC042021
:1002C0008DF803000120ADF800006946D44801F024
:1002D0004DFC48208DF803000820ADF80000694669
:1002E000CF4801F043FC4FF48060ADF80000694650
:1002F000CA4801F03BFC4FF40050ADF800006946DD
:10030000C84801F033FC0820ADF800006946C24837
:1003100001F02CFC08BD2DE9F04106460D461446BF
:1003200042F2107094FBF0F03030C7B23A462946E2
:10033000304600F010FC42F2107094FBF0F100FB2C
:1003400011404FF47A7190FBF1F03030C7B205F1F3
:10035000190081B23A46304600F0FDFB4FF47A7046
:1003600094FBF0F100FB1140642190FBF1F0303080
:10037000C7B205F1320081B23A46304600F0EBFBDD
:10038000642094FBF0F100FB11400A2190FBF1F096
:100390003030C7B205F14B0081B23A46304600F02A
:1003A000DAFB0A2094FBF0F100FB11403030C7B2B9
:1003B00005F1640081B23A46304600F0CCFBBDE85E
:1003C000F08100B591B00121102002F057F8012111
:1003D000480202F053F80120ADF8400000208DF8EB
:1003E000430010A98F4801F0C1FB0121084602F02B
:1003F00038F88D4801F036FA8C4800908C4801900E
:10040000002002900120039000200490802005909D
:1004100040000690C000079020200890000209903C
:1004200000200A906946804801F0BDFA01217E480B
:1004300001F0E4FA00200B9001208DF8300000203C
:100440008DF831004FF460200D9000200E900120B7
:100450008DF83C000BA975484C3801F00CF80523C9
:1004600001220A2171484C3801F09DF801216F48A2
:100470004C3801F02CF86D484C3801F04AF800BFB8
:100480006A484C3801F04AF80028F9D167484C38DE
:1004900001F04EF800BF65484C3801F04EF80028D6
:1004A000F9D1012161484C3801F01CF801215F4865
:1004B0004C3801F04CF811B000BD00B585B00121F9
:1004C000042001F0DBFF4FF48060ADF80000042051
:1004D0008DF8030003208DF802006946504801F0B2
:1004E00045FB4FF40070ADF8000003208DF80200CA
:1004F00018208DF803006946494801F037FB0121B7
:10050000880301F0BBFF4B4802F020F84FF49640FF
:1005100001900020ADF80800ADF80A00ADF80C001D
:10052000ADF810000C20ADF80E0001A9414802F012
:1005300050F8012240F225513E4802F0C7F801214F
:100540003C4802F0B7F880213A4802F084F905B03F
:1005500000BD10B540F22551364802F085F968B16A
:1005600040F22551334802F0A9F9324802F013F95C
:10057000C4B222460521C820FFF7CDFE10BD08B544
:1005800000214FF0006000F019FF25208DF80000D9
:1005900000208DF8010001208DF802008DF8030085
:1005A000684600F0D8FE08BD9CB000BF0A250D24A7
:1005B00023462A46204903A8CDE9004502F0BEF9AA
:1005C00000F00BFE03AA0021084600F060FE00F0D8
:1005D0008DFE1AE06D1C641C23462A4616495431D0
:1005E00003A8CDE9004502F0A9F903AA00210846B5
:1005F00000F04DFE00F07AFE104800F021F8632D67
:1006000000D10A25632C00D10D24E3E7001002403D
:1006100000041C000020024000180140000C0140B2
:100620000008014000100140080002404C24014035
:100630000000002000380140442C0008A086010082
:10064000002100E0491C8142FCD3704770B504468C
:100650000D46164632462946204601F036FB70BD4F
:1006600070B50446254600224FF48051F748FFF745
:10067000EDFF8021F64801F026FB0021F54801F04E
:1006800029FB4FF40041F24801F01DFB4FF40041FB
:10069000EF4801F016FB2946EE4801F01BFB4FF432
:1006A0000041EB4801F00FFB4FF40041E84801F036
:1006B00008FB8021E64801F004FB01221103E34816
:1006C000FFF7C4FF70BD70B505460C462846FFF71E
:1006D000C7FF00224FF48051DC48FFF7B7FF8021AD
:1006E000DB4801F0EEFA2112DA4801F0F3FA4FF498
:1006F0000041D74801F0E7FA4FF40041D44801F037
:10070000E0FA2146D34801F0E5FA4FF40041D04821
:1007100001F0D9FA4FF40041CD4801F0D2FA01229C
:100720001103CA48FFF792FF70BD014600BFCA4AD5
:1007300001FB02F000E0401E0028FCD1704708B524
:1007400001214FF4907001F099FE4FF40040ADF894
:10075000000003208DF8020010208DF80300694688
:10076000BB4801F003FA4FF40070ADF8000003201D
:100770008DF8020010208DF803006946B44801F09E
:10078000F5F98020ADF8000003208DF8020010205C
:100790008DF803006946AE4801F0E8F9FF20ADF896
:1007A000000003208DF8020010208DF80300694638
:1007B000A84801F0DBF98021A54801F082FA4FF446
:1007C0000071A34801F07DFA4FF40041A04801F008
:1007D00078FA08BD38B50121182001F04FFE4FF41A
:1007E0008050ADF8000002208DF8020010208DF836
:1007F00003006946954801F0B9F92020ADF80000E2
:1008000002208DF8020010208DF8030069469348FD
:1008100001F0ACF92021914801F055FA002400E0E4
:10082000641C4EF660208442FAD320218B4801F0EC
:1008300048FA38BD10B5FFF7CDFFFFF780FF0A205B
:10084000FFF773FF4FF40041E520FFF73CFF012164
:100850000020FFF738FF4FF480710120FFF733FFCE
:100860004FF4E0610220FFF72EFF41F23001032038
:10087000FFF729FF00210420FFF725FF40F20221A6
:100880000820FFF720FF00210920FFF71CFF0021AF
:100890000A20FFF718FF00210C20FFF714FF0021AA
:1008A0000D20FFF710FF00210F20FFF70CFF0021A4
:1008B0001020FFF708FF00211120FFF704FF00219F
:1008C0001220FFF700FF00211320FFF7FCFE0A2093
:1008D000FFF72BFF41F2B0711020FFF7F4FE40F25A
:1008E00037111120FFF7EFFE0A20FFF71EFF40F23D
:1008F00039111220FFF7E7FE0A20FFF716FF4FF429
:10090000E8511320FFF7DFFE13212920FFF7DBFE5C
:100910000A20FFF70AFF00212020FFF7D4FE002164
:100920002120FFF7D0FE06213020FFF7CCFE40F259
:1009300001113120FFF7C7FE03213220FFF7C3FE6C
:100940004FF483713520FFF7BEFE40F602313620AA
:10095000FFF7B9FE40F202313720FFF7B4FE40F254
:1009600007713820FFF7AFFE07213920FFF7ABFEF4
:100970004FF4C0613C20FFF7A6FE40F20B213D2062
:10098000FFF7A1FE00215020FFF79DFEEF2151202F
:10099000FFF799FE00215220FFF795FE40F23F112C
:1009A0005320FFF790FE4FF427416020FFF78BFEA6
:1009B00001216120FFF787FE00216A20FFF783FEF7
:1009C00000218020FFF77FFE00218120FFF77BFEC2
:1009D00000218220FFF777FE00218320FFF773FEBE
:1009E00000218420FFF76FFE00218520FFF76BFEBA
:1009F00010219020FFF767FE00219220FFF763FE91
:100A000003219320FFF75FFE4FF488719520FFF7D5
:100A10005AFE00219720FFF756FE00219820FFF78D
:100A200052FE41F218010320FFF74DFE40F2731110
:100A30000720FFF748FE10BD10B5FFF7FBFE10BD05
:100A40000749088070470749088070470010014037
:100A50000014014000200140A0860100000C01406C
:100A6000040000200600002070B504460D46214613
:100A70002020FFF728FE29462120FFF724FE70BD25
:100A800010B504468021F94801F01BF92112F848FD
:100A900001F020F94FF40041F44801F014F94FF44B
:100AA0000041F24801F00DF92146F14801F012F938
:100AB0004FF40041ED4801F006F94FF40041EB48D6
:100AC00001F0FFF810BD10B52220FFF7C9FD00228C
:100AD0004FF48051E748FFF7B9FD10BD2DE9F0470D
:100AE00007460C46904600250026A946B94640F226
:100AF0003F10001B81B24846FFF7B6FF00BF26E05B
:100B0000FFF7E1FF00260FE038F815000121B140A2
:100B1000084204D1D8480088FFF7B2FF03E0D74865
:100B20000088FFF7ADFF761C102EEDD301221103D4
:100B3000D048FFF78BFD09F1010000F0FF0940F2FA
:100B40003F10001B81B24846FFF78EFF6D1C182D29
:100B5000D6D3BDE8F08770B505460E461446A4F11D
:100B60002000C4B204EB4400C54901EB0012314639
:100B70002846FFF7B3FF70BD2DE9F04105460C464E
:100B8000002600270CE0227805EB4501C906080E77
:100B90003946FFF7E0FF07F1100087B2641C761CAE
:100BA000207808B1012000E00020142E01D201219C
:100BB00000E000210842E6D1BDE8F08110B504460E
:100BC000B0A12046FFF7D8FF10BD70B50546002440
:100BD00040F23F110020FFF747FFFFF774FF00BF0F
:100BE00003E02846FFF74CFF641CB4F5963FF8D3AA
:100BF000012211039F48FFF729FD70BD2DE9F04147
:100C000004460D4616461F46B44206DBA01B401C98
:100C100081B25020FFF757FD03E000215020FFF77D
:100C200052FD21465120FFF74EFDBD4206DBE81B79
:100C3000401C81B25220FFF746FD03E00021522004
:100C4000FFF741FD29465320FFF73DFD2946204689
:100C5000FFF70AFFBDE8F08110B54FF4A073F02252
:100C6000591EEF20FFF7CAFF41F218010320FFF7DA
:100C70002AFD10BD10B50446FFF725FF2046FFF7FB
:100C8000FFFE012211037B48FFF7E0FC10BD2DE9B8
:100C9000F04107460E4615469846002440F23F10A4
:100CA000801B81B23846FFF7DFFEB8F1000F10D18C
:100CB000FFF709FF00BF04E070480088FFF7E0FE7F
:100CC000641CAC42F8D3012211036A48FFF7BEFC52
:100CD0000EE000240AE069480088FFF7CBFF781C8B
:100CE000C7B231463846FFF7BFFE641CAC42F2D3B0
:100CF000BDE8F0812DE9F04106460C4617461D4639
:100D000000232A4621463046FFF7C1FFF119C8B239
:100D100000232A462146FFF7BAFF40F23F10001B8E
:100D200081B201233A463046FFF7B1FF6019401EF9
:100D300040F23F12101A81B201233A463046FFF7C3
:100D4000A6FFBDE8F0812DE9F04706460F46904624
:100D50000320A0EB48090024454676E040F23F120C
:100D6000D21B2A4491B23219D0B2FFF77DFE43481C
:100D70000088FFF77FFF40F23F12D21B521B91B257
:100D80003219D0B2FFF770FE3C480088FFF772FFBF
:100D900040F23F12D21B2A4491B2321BD0B2FFF76D
:100DA00063FE36480088FFF765FF40F23F12D21B12
:100DB000521B91B2321BD0B2FFF756FE2F4800886B
:100DC000FFF758FF40F23F12D21B224491B2721932
:100DD000D0B2FFF749FE29480088FFF74BFF40F2E9
:100DE0003F12D21B121B91B27219D0B2FFF73CFE18
:100DF00022480088FFF73EFF40F23F12D21B2244F8
:100E000091B2721BD0B2FFF72FFE1C480088FFF78B
:100E100031FF40F23F12D21B121B91B2721BD0B2B3
:100E2000FFF722FE15480088FFF724FFB9F1000FF5
:100E300004DA062000EB8400814405E0601B0A21EF
:100E400001EB800081446D1E641CAC4286D9BDE874
:100E5000F08770B506460024002540F23F110020BF
:100E6000FFF702FEFFF72FFE00BF2CE00014014049
:100E70000020014000100140060000200400002076
:100E8000222D00082020202020202020202020208B
:100E900020202020202020200000000000250FE03E
:100EA00056F824000121A940084204D16E48008868
:100EB000FFF7E6FD03E06D480088FFF7E1FD6D1CDC
:100EC000202DEDD3641CB4F5166FE7D30122110376
:100ED0006748FFF7BBFB70BD70B50446254680210F
:100EE000644800F0F0FE00224FF480516048FFF7A4
:100EF000ADFB2946604800F0EDFE4FF400415D482F
:100F000000F0E1FE4FF400415A4800F0DAFE70BDF7
:100F100010B500211020FFF7D6FB00211120FFF7AC
:100F2000D2FB00211220FFF7CEFB00211320FFF798
:100F3000CAFB1420FFF7F9FB41F2B0711020FFF754
:100F4000C2FB40F237111120FFF7BDFB0520FFF770
:100F5000ECFB40F239111220FFF7B5FB0520FFF73B
:100F6000E4FB4FF4E8511320FFF7ADFB13212920D8
:100F7000FFF7A9FB0520FFF7D8FB40F2731107200C
:100F8000FFF7A1FB10BD10B540F273110720FFF76A
:100F90009AFB10BD10B500210720FFF794FB10BD90
:100FA0002DE9F04107460C46154642F2107095FBBC
:100FB000F0F0C6B206F13000C2B2C4F5A07081B242
:100FC0003846FFF7C8FD4FF47A7095FBF0F00A2120
:100FD00090FBF1F201FB1200C6B206F13000C2B282
:100FE000A4F11000C0F5A07081B23846FFF7B3FD40
:100FF000642095FBF0F00A2190FBF1F201FB120056
:10100000C6B206F13000C2B2A4F12000C0F5A07053
:1010100081B23846FFF79FFD0A2095FBF0F00A21C8
:1010200090FBF1F201FB1200C6B206F13000C2B231
:10103000A4F13000C0F5A07081B23846FFF78BFDF7
:101040000A2095FBF0F100FB1150C6B206F130000A
:10105000C2B2A4F14000C0F5A07081B23846FFF7DB
:101060007AFDBDE8F08100000600002004000020A9
:1010700000100140001401400020014000E0401E2B
:101080000028FCD1704708B50121082001F0F6F9CD
:101090000121402001F0F2F90121084601F0EEF9AA
:1010A0000121480501F0F7F94FF44070ADF8000058
:1010B00003208DF802001C208DF803006946974834
:1010C00000F054FD0121022000F01FFE0320ADF8C6
:1010D000000010208DF803006946914800F046FD9D
:1010E0000121904800F09EFF00218E4800F09AFFF9
:1010F00001218C4800F00DFF00208B4988804BF6C1
:10110000FF70C880792008814FF480604881000119
:10111000888186480860834800F07DFE08BD70B570
:1011200004460D4601217F4800F017FF00BF8049AB
:101130007C4800F0EDFF0028F9D0002278217948A2
:1011400000F061FF00BF7B49764800F0E1FF002816
:10115000F9D025B10021734800F04FFF03E0402192
:10116000704800F04AFF00BF7249891C6D4800F0CA
:10117000CFFF0028F8D021466A4800F03EFF00BFAC
:101180006C49891C674800F0C3FF0028F8D0012192
:10119000644800F0EEFE70BD10B50221604800F01A
:1011A00092FD01215E4800F08CFD42F21070FFF7C5
:1011B00065FF01215A4800F086FD42F21070FFF7EA
:1011C0005DFF0121564800F07CFD10BD10B54FF4C5
:1011D0008061594801F038FC10BD10B5FFF753FF8E
:1011E000FFF7DAFF002405E05449085D0121FFF70D
:1011F00096FF641C192CF7D3FFF7E8FF10BD70B5FC
:101200001346082901DA7A2800DB70BD00220CE0C1
:1012100003EB830414444A4D2C5D00EBC115464E8C
:101220007455441CE0B2541CE2B2052AF0DB00BF46
:10123000EBE7F0B50B46082B01DA772800DBF0BDB1
:10124000044600210BE001EB02153E4E755D00EBFC
:10125000C316394FBD55451CE8B24D1CE9B20829EB
:10126000F1DB00210FE0082505EB02150D44354E9A
:10127000765D5D1C00EBC515083D2F4F7E55451C66
:10128000E8B24D1CE9B20829EDDB00BFD7E770B525
:1012900006460C46154624E0022C00D084B92A7874
:1012A00021463046FFF7C5FF6D1C06F10900C6B2A6
:1012B00006F10900802811DB0026A01CC4B20DE055
:1012C0002A7821463046FFF79AFF6D1CB01DC6B242
:1012D000B01D802802DB0026601CC4B2082C00DB95
:1012E00070BD28780028D7D100BFF9E770B5002578
:1012F00005E01549485D0121FFF711FF6D1C032D25
:10130000F7D3002405E00C49085D0021FFF707FF33
:10131000641CB4F5806FF6D370BD0000000C014072
:10132000001801400054004034190020A08601003C
:1013300001000300820007000315002006190020A9
:101340000810002008000020031900203149014343
:10135000314A1160704770B5002100230F22C47814
:101360000CB32D4C246804F4E064C4F5E064210A55
:10137000C1F10403CA40447804FA03F184781440AC
:1013800021430901254C0678A155047804F01F0576
:101390000124AC4005786D114FF0E02606EB850581
:1013A000C5F8004109E0047804F01F050124AC40B1
:1013B0001B4D0678761145F8264070BD194A0A4043
:1013C0000243154B1B1F1A60704739B1124A121D98
:1013D00012680243104B1B1D1A6006E00E4A121DD4
:1013E000126882430C4B1B1D1A607047042808D1F9
:1013F0004FF0E021096941F004014FF0E022116152
:1014000007E04FF0E021096921F004014FF0E022EC
:10141000116170470000FA050CED00E000E400E007
:1014200080E100E080FFFF1F10B50446F9488442C8
:1014300008D10121401501F03BF80021601501F0B1
:1014400037F817E0F448844208D10121001501F073
:101450002FF80021201501F02BF80BE0EF48844213
:1014600008D10121C80301F023F800214FF4004006
:1014700001F01EF810BD30B5024600200023506870
:10148000E74C20400D790C6844EA05242043506065
:101490009068E44C2040D1E902542C434D7944EA51
:1014A000450420439060D06A20F470000C7C641ED8
:1014B000E4B2234340EA0350D06230BD0021016012
:1014C000017141718160C16001210174704721B1D6
:1014D000826842F00102826003E0826822F0010229
:1014E0008260704721B1826842F48072826003E0BA
:1014F000826822F480728260704710B50023CBB2FC
:101500001AB144681C43446002E044689C43446050
:1015100010BD816841F008018160704701460020DC
:101520008A6812F0080F01D0012000E00020704707
:10153000816841F0040181607047014600208A689B
:1015400012F0040F01D0012000E00020704721B10B
:10155000826842F4A002826003E0826822F4A00262
:1015600082607047014600208A6812F4800F01D023
:10157000012000E00020704710B50A46002100233A
:10158000416821F46041531E41EA4331416010BD7E
:1015900021B1426842F40062426003E0426822F4F2
:1015A000006242607047F0B504460D4600200021FD
:1015B000092D11DDE068A5F10A0606EB46070726AE
:1015C00006FA07F18843A5F10A0606EB460603FA78
:1015D00006F10843E0600CE0206905EB45070726AB
:1015E00006FA07F1884305EB450603FA06F10843BE
:1015F0002061072A0FDA606B561E06EB86071F264E
:1016000006FA07F18843561E06EB860605FA06F130
:101610000843606322E00D2A0FDA206BD61F06EB29
:1016200086071F2606FA07F18843D61F06EB8606B3
:1016300005FA06F10843206310E0E06AA2F10D0606
:1016400006EB86071F2606FA07F18843A2F10D066E
:1016500006EB860605FA06F10843E062F0BD21B10B
:10166000826842F48012826003E0826822F4801271
:10167000826070470146C86C80B2704765484C3044
:101680000068704721B1426842F48062426003E022
:10169000426822F480624260704721B1426842F49D
:1016A0008052426003E0426822F4805242607047F8
:1016B0000A460021816821F4E041114381607047AE
:1016C00021B1826842F40042826003E0826822F421
:1016D00000428260704721B1826842F40212826047
:1016E00003E0826822F40212826070470146002003
:1016F0008A6812F4001F01D0012000E0002070472A
:10170000F0B504461546002000220026092911DD07
:10171000E068A1F10A0707EB470C072707FA0CF26C
:101720009043A1F10A0707EB470703FA07F21043BA
:10173000E0600CE0206901EB410C072707FA0CF28E
:10174000904301EB410703FA07F210432061A06BBD
:10175000C0F30156EF1C06F1010CA7EB0C0707EBD9
:10176000870C1F2707FA0CF29043EF1C06F1010CBF
:10177000A7EB0C0707EB870701FA07F21043A063FA
:10178000F0BD10B50A4600210023816B21F4401101
:10179000531E41EA0351816310BD10B50023034677
:1017A0000B441A6010BD02460023134601F12800C5
:1017B0000344186880B270470A46002141681A4BFA
:1017C00019401143416070474162826270470A4686
:1017D0000021416821F01F0111434160704740B171
:1017E0000C490831096841F400010A4A08321160C5
:1017F00007E008490831096821F40001054A083268
:10180000116070470246002013680B420ED0012081
:101810000DE000000024014000280140003C014090
:10182000FFFEF0FFFDF7F1FFFFFD3FFF00207047D7
:10183000CA430260704770B50246002000230024AE
:101840000B125568CEB205EA060415681D4202D097
:101850000CB1012000E0002070BD00220A12D34329
:1018600003607047016821F00101016000210160FF
:1018700041608160C1608B49884208D1894908393B
:10188000496841F00F01874A083A51608AE085496A
:101890001431884208D183490839496841F0F00180
:1018A000804A083A51607DE07E492831884208D15B
:1018B0007C490839496841F470617A4A083A5160B4
:1018C00070E078493C31884208D176490839496846
:1018D00041F47041734A083A516063E071495031F4
:1018E000884208D16F490839496841F470216D4A2E
:1018F000083A516056E06B496431884208D1694921
:101900000839496841F47001664A083A516049E073
:1019100064497831884208D162490839496841F000
:101920007061604A083A51603CE05F49884206D1E4
:10193000011F096841F00F01021F116032E05A498E
:101940001431884208D15849091F096841F0F00153
:10195000554A121F116025E053492831884208D1A9
:101960005149091F096841F470614F4A121F116003
:1019700018E04D493C31884208D14B49091F09689C
:1019800041F47041484A121F11600BE04649503142
:10199000884207D14449091F096841F47021424A2D
:1019A000121F1160704710B50022026847F6F073ED
:1019B0009A430C6A8B6823430C6923434C69234385
:1019C0008C692343CC6923434C6A23438C6A2343A9
:1019D0001A430260CB6843600B6883604B68C36046
:1019E00010BD0021016041608160C1600161416101
:1019F0008161C161016241628162704721B1026807
:101A000042F00102026003E0026822F0010202607B
:101A100070471AB103680B43036002E003688B430D
:101A2000036070470146486880B270470146002055
:101A3000002211F0805F03D01B4B083B1A6802E0C4
:101A4000184B083B1A680A4201D0012000E0002030
:101A5000704710F0805F03D01349091F086002E04F
:101A6000104908394860704701460020002211F0F3
:101A7000805F03D00C4B083B1A6802E0094B083B1F
:101A80001A680A4201D0012000E00020704710F0DF
:101A9000805F03D00449091F086002E0014908394A
:101AA00048607047080002400804024010B5044630
:101AB000C248844208D10121042000F0F9FC002131
:101AC000042000F0F5FC46E0BD48844208D1012125
:101AD000082000F0EDFC0021082000F0E9FC3AE0CD
:101AE000B848844208D10121102000F0E1FC002117
:101AF000102000F0DDFC2EE0B348844208D1012123
:101B0000202000F0D5FC0021202000F0D1FC22E0B4
:101B1000AE48844208D10121402000F0C9FC0021D8
:101B2000402000F0C5FC16E0A948844208D10121FC
:101B3000802000F0BDFC0021802000F0B9FC0AE00C
:101B4000A448844207D10121801500F0B1FC002196
:101B5000A01500F0ADFC10BD10B50121084600F045
:101B6000A7FC0021012000F0A3FC10BD2DE9F041ED
:101B7000024600250026002000230024002791F8BB
:101B800003C00CF00F0591F803C01CF0100F03D038
:101B900091F802C04CEA050591F800C0BCF1000FB5
:101BA00031D0146800202BE04FF0010C0CFA00F348
:101BB000B1F800C00CEA03069E4220D183004FF02A
:101BC0000F0C0CFA03F7BC4305FA03FC4CEA0404BF
:101BD00091F803C0BCF1280F06D14FF0010C0CFAAC
:101BE00000FCC2F814C00AE091F803C0BCF1480F31
:101BF00005D14FF0010C0CFA00FCC2F810C0401CDB
:101C00000828D1D31460B1F800C0BCF1FF0F34DD57
:101C1000546800202EE000F1080C4FF0010808FA8B
:101C20000CF3B1F800C00CEA03069E4221D18300F8
:101C30004FF00F0C0CFA03F7BC4305FA03FC4CEA17
:101C4000040491F803C0BCF1280F05D100F1080C81
:101C500008FA0CF8C2F8148091F803C0BCF1480FE0
:101C600007D100F1080C4FF0010808FA0CF8C2F88F
:101C70001080401C0828CED35460BDE8F0814FF698
:101C8000FF710180022181700421C17070470246FA
:101C9000002093680B4201D0012000E00020704733
:101CA0000146886880B2704702460020D3680B4224
:101CB00001D0012000E0002070470146C86880B2D2
:101CC000704701617047416170470AB1016100E0EE
:101CD00041617047C16070474FF480320A438261AE
:101CE00081618261826982697047024600203A4BB5
:101CF00018684FF68073184040EA02100843364BCC
:101D0000186070473549C8617047F0B50A4600232E
:101D1000002400210025304E7168C0F3034583B2D2
:101D200000F44016B6F5401F08D121F070612A4E2C
:101D3000766826F07066284F7E6012E000F4801608
:101D4000B6F5801F06D1032606FA05F4A14341F03B
:101D5000706106E0460D360103FA06F6B14341F024
:101D6000706122B1460D360103FA06F631431A4E70
:101D70007160F0BD30B500228B071C0F0F2303FAF2
:101D800004F2154B08338C1053F824309343124C53
:101D900008348D1044F8253023468C1053F8243035
:101DA0008C07240F00FA04F423430B4C08348D10E5
:101DB00044F8253030BD0A490860704700080140EA
:101DC000000C0140001001400014014000180140C7
:101DD000001C0140002001400000014000002042A2
:101DE000DC00204210B50446ED48844209D10121AF
:101DF000480500F06AFB00214FF4001000F065FB7D
:101E000008E00121880500F060FB00214FF480000C
:101E100000F05BFB10BD2DE9F04385B004460D4694
:101E20000026B1460427DFF87C83A6884FF6C070F1
:101E30000640684600F0B5FADDF80880DA48B8FBDD
:101E4000F0F01FFA80F946EA0906A68020884FF6CE
:101E5000FE71084020800026D449286888420CD8AA
:101E600028684000B8FBF0F087B2042F00DA04279E
:101E70003E4309F10100208427E0E888A0F53F41B6
:101E8000FF3906D1286800EB4000B8FBF0F087B2BC
:101E900009E0286800EBC00101EB0010B8FBF0F08E
:101EA00087B247F480473805000D01D147F001079C
:101EB00047F4004006434FF4967009FB00F04FF4DE
:101EC0007A7190FBF1F0401C2084A683208840F0BA
:101ED0000100208026884FF6F5300640A8886989E1
:101EE000084306432680A88929890843208105B034
:101EF000BDE8F08341F288310160002181804BF61A
:101F0000FF71C1800021018141814FF480418181B5
:101F1000704721B1028842F00102028004E0028889
:101F20004FF6FE731A400280704721B1828842F456
:101F30000062828004E082884FF2FF731A40828040
:101F4000704721B1828842F48052828004E0828806
:101F50004EF6FF731A408280704721B1028842F426
:101F60008072028004E002884FF6FF631A4002800C
:101F7000704721B1028842F40072028004E00288B6
:101F80004FF6FF531A400280704721B1028842F495
:101F90008062028004E002884FF6FF331A4002801C
:101FA00070470A46002181894FF60173194002F0FB
:101FB000FE0319438181704721B1828942F00102F9
:101FC000828104E082894FF6FE731A408281704755
:101FD00021B1028842F04002028004E002884FF6FC
:101FE000BF731A40028070471AB183880B43838005
:101FF00002E083888B4383807047018270470146EB
:10200000088AC0B2704712B141F0010102E04FF6F8
:10201000FE731940018270470246002313460B44A9
:102020001888704721B1028842F40042028003E020
:102030000288C2F30E0202807047B1F5005F04D13E
:10204000028842F40052028004E002884DF6FF73D9
:102050001A400280704721B1028842F48052028007
:1020600004E002884EF6FF731A4002807047B1F513
:10207000006F04D1028842F40062028004E002880A
:102080004FF2FF731A400280704721B1028842F07C
:102090002002028004E002884FF6DF731A400280BB
:1020A00070470146088B0012704721B1028842F048
:1020B0001002028004E002884FF6EF731A4002809B
:1020C000704721B9028842F08002028004E0028851
:1020D0004FF67F731A4002807047B1F5804F05D0EC
:1020E000828B4BF6FF731A40828303E0828B42F4AB
:1020F00080428283704710B50146002000230022F1
:102100008B8A0A8B120443EA020424F07F4010BD3C
:1021100070B502460024002500230020958A138B09
:102120001B0445EA030626F07F448C4201D10120BE
:1021300000E0002070BD30B50346002000240022DE
:102140001A460C0F21F07F410CB1143201E0090C4A
:10215000183215680D4201D0012000E0002030BD8A
:10216000002221F07F42D3438382704730B502467C
:1021700000200023948801F0E06504EA154321F073
:102180007F41948A0C4202D00BB1012000E0002074
:1021900030BD002221F07F42D3438382704700008C
:1021A0000054004000127A0040420F00A086010057
:1021B000DB48006840F00100D949086008464068E3
:1021C000D8490840D649486008460068D6490840C2
:1021D000D34908600846006820F48020086008465B
:1021E000406820F4FE0048604FF41F00886070478C
:1021F000CB49096821F48031C94A11601146096848
:1022000021F480211160B0F5803F03D0B0F5802F1C
:102210000ED106E0C249096841F48031C04A11601C
:1022200007E0BF49096841F4A021BD4A116000E000
:1022300000BF00BF704710B50146002200230020F8
:102240004A11012A02D1B64C236806E0022A02D1C3
:10225000B34C236A01E0B24C636A01F01F0201240F
:1022600094401C4201D0012000E0002010BD70B558
:1022700000240025002600BF3120FFF7DCFF0646C2
:10228000641CB4F5A06F01D0002EF5D03120FFF70B
:10229000D2FF08B1012500E00025284670BD0146A7
:1022A00000209F4A106820F0F80040EAC10010604A
:1022B00070479E490860704702460020984B586856
:1022C00020F47C1042EA01031843954B5860704794
:1022D00096490866704701460020914A506820F0F0
:1022E00003000843506070478D48406800F00C00C0
:1022F0007047014600208A4A506820F0F0000843E9
:102300005060704701460020854A506820F4E06024
:1023100008435060704701460020814A506820F40D
:10232000605040EAC1005060704729B17C4A527A3F
:1023300002437B4B5A7204E0794A527A8243784BCB
:102340005A7270477A490860704701460020744A03
:10235000506820F440400843506070470021754A9F
:1023600011706F4A82F82010012802D0042808D189
:1023700003E001216F4A117004E005216D4A1170DC
:1023800000E000BF00BF70476B49086070476449B8
:10239000096A0143624A116270476749443908601B
:1023A000704730B500210022002400235C4D6D6889
:1023B00005F00C0121B1042905D0082923D105E03D
:1023C0005E4D056022E05D4D05601FE0544D6D6877
:1023D00005F47012524D6D6805F48034022505EB4A
:1023E00092421CB9564D554305600BE04C4D6D684B
:1023F00015F4003F03D0524D5543056002E04F4DA8
:102400005543056002E04D4D056000BF00BF444DDF
:102410006D6805F0F00109094A4D6B5C0568DD4007
:1024200045603F4D6D6805F4E061090A454D6B5C00
:102430004568DD4085603A4D6D6805F46051C90A14
:10244000404D6B5C4568DD40C560354D6D6805F4F9
:102450004041890B3C4D6B5CC568B5FBF3F50561EC
:1024600030BD29B12E4A526902432D4B5A6104E016
:102470002B4A526982432A4B5A61704729B1284A34
:1024800092690243264B9A6104E0254A926982438D
:10249000234B9A61704729B1214AD2690243204BEC
:1024A000DA6104E01E4AD26982431D4BDA6170474B
:1024B00029B11B4AD2680243194BDA6004E0184A7A
:1024C000D2688243164BDA60704729B1144A126908
:1024D0000243134B1A6104E0114A12698243104B04
:1024E0001A61704714494039086070470F49C86441
:1024F00070470B49C87170470948406A40F08070C6
:1025000007494862704701460020054A92680A421E
:1025100001D0012000E00020704701498872704717
:10252000001002400000FFF8FFFFF6FE00004242EC
:10253000D8004242201002408004424200127A0039
:1025400000093D001F1900202F19002010B5044676
:10255000E248844209D101218803FFF7A9FF002145
:102560004FF48040FFF7A4FF32E0DD48844209D1F8
:1025700001214804FFF7A9FF00214FF40030FFF7C5
:10258000A4FF25E0D748844209D101218804FFF740
:102590009CFF00214FF48020FFF797FF18E0D248FE
:1025A000844209D10121C804FFF78FFF00214FF4B5
:1025B0000020FFF78AFF0BE0CC48844208D10121BC
:1025C0000805FFF782FF00214FF48010FFF77DFF21
:1025D00010BD2DE9F04786B005460E460024A24600
:1025E00000BF00BF0027B08900B100BF2F462C8A72
:1025F0004CF6FF700440F08804432C82AC894EF600
:10260000F3100440B08831890843718908430443BA
:10261000AC81AC8A4FF6FF400440B0890443AC82E1
:1026200001A8FFF7BEFEAD48874202D1DDF810A039
:1026300001E0DDF80CA00AEBCA0000EB0A103168DB
:102640008900B0FBF1F86420B8FBF0F00401200928
:10265000642101FB1089322000EB0910B0FBF1F07E
:1026600000F00F0004432C8106B0BDE8F0874FF462
:102670001651016000218180C18001810C214181BE
:1026800000218181704710B502460020108A4FF268
:10269000FF0318400B884C8823438C882343CC8845
:1026A00023431843108210BD0021018041808180A6
:1026B000C180704721B1828942F40052828104E0D6
:1026C00082894DF6FF731A4082817047F0B5034648
:1026D0000024002600250020A1F510676A3F00D1E4
:1026E00000BF1846C1F3421401F01F06012707FA84
:1026F00006F5012C01D10C3004E0022C01D1103080
:1027000000E014301AB107682F43076002E0076841
:10271000AF430760F0BD1AB1838A0B43838202E0A6
:10272000838A8B4383827047028A4FF6F0731A4084
:102730000282028A0A430282704782894FF2FF7343
:102740001A40828182890A438281704721B182893D
:1027500042F00202828104E082894FF6FD731A4042
:1027600082817047028A4FF6DF731A400282028A22
:102770000A430282704721B1028A42F480420282F7
:1027800004E0028A4BF6FF731A4002827047C1F3DD
:1027900008028280704701468888C0F308007047AD
:1027A000818941F0010181817047028BD2B202839D
:1027B000028B42EA012202837047028B02F47F42BD
:1027C0000283028B0A430283704721B1828A42F05E
:1027D0002002828204E0828A4FF6DF731A408282EE
:1027E000704721B1828A42F01002828204E0828A1C
:1027F0004FF6EF731A408282704721B1828A42F00D
:102800000802828204E0828A4FF6F7731A408282BD
:102810007047828A4FF6FB731A408282828A0A438B
:102820008282704721B1828A42F00202828204E0F1
:10283000828A4FF6FD731A4082827047024600205A
:10284000B1F5007F00D100BF13880B4201D00120F9
:1028500000E00020704701F40072B2F5007F00D163
:1028600000BFCA430280704770B5024600240023AF
:1028700000250020A1F510666A3E00D100BFC1F31B
:10288000421501F01F03012606FA03F3012D02D1C0
:102890009689334006E0022D02D1168A334001E0CA
:1028A000968A33400C12012606FA04F41688344046
:1028B00013B10CB1012000E0002070BD10B5002262
:1028C0000023A1F510646A3C00D100BF0A12012464
:1028D0009440A3B2DC43048010BD000000380140E6
:1028E0000044004000480040004C004000500040C0
:1028F00070470B4880470B4981F308880A48004716
:10290000FEE7FEE7FEE7FEE7FEE7FEE7FEE7FEE79F
:10291000FEE7FEE705480649064A074B70470000F8
:10292000F1280008A81F002031010008A819002084
:10293000A81F0020A81B0020A81B00200FB41CB556
:10294000074B06AA7B4469460090059800F003F9FE
:102950000020694600F012F91CBC5DF814FB000071
:10296000350200002DE9F04104460E4600202062A9
:102970002046E168884738B3252806D0D4E90121EC
:102980009047206A401C2062F2E7E1682046002759
:102990008847050018D0A5F14100192802D8203534
:1029A0004FF400673246294620462760FDF71AFC9F
:1029B00040B1012804D0F61D26F007060836D7E7F7
:1029C000361DD5E72846D9E7206ABDE8F08100002A
:1029D0002DE9F0410646002410687529314616A5F8
:1029E00011D0AFF30080002803DAC0F1000013A576
:1029F00007E031688A0701D511A502E0490704D52F
:102A000010A5012401E0AFF3008000210A2306F1A4
:102A1000240707E0B0FBF3F203FB120030307854D8
:102A20001046491C0028F5D123462A463046BDE809
:102A3000F04100F02EB80000000000002D00000062
:102A40002B000000200000004FF000020429C0F01D
:102A5000128010F0030C00F09880CCF1040CBCF153
:102A6000020F18BF00F8012BA8BF20F8022BA1EB22
:102A70000C0100F08AB85FEAC17C24BF00F8012B8A
:102A800000F8012B48BF00F8012B704770477047D2
:102A900070472DE9F0470D4699469246044600F1ED
:102AA00024080168880604D5E06921F0100121603E
:102AB00000E00120A84202DDA0EB050700E00027AE
:102AC000A16907EB050202EB0900A1EB0000A06180
:102AD0002078C00602D42046AFF30080002608E02C
:102AE000D4E901211AF806009047206A401C761CA0
:102AF00020624E45F4DB2078C0060AD52046AFF3AD
:102B0000008006E0D4E9012130209047206A401C73
:102B10002062381EA7F10107F4DC07E0D4E90121A7
:102B200018F805009047206A401C2062281EA5F175
:102B30000105F3DC2046AFF300802078000602D5C3
:102B40000220BDE8F0870120FBE7000001694A1C74
:102B500002610878704700B58FB0CDE901310021DE
:102B6000059105497944CDE9031011466846FFF700
:102B7000F9FE0FB000BD0000E5FFFFFF0A6802F894
:102B8000010B0A6070474FF0000200B513469446EF
:102B90009646203922BFA0E80C50A0E80C50B1F1B5
:102BA0002001BFF4F7AF090728BFA0E80C5048BFC9
:102BB0000CC05DF804EB890028BF40F8042B08BF67
:102BC000704748BF20F8022B11F0804F18BF00F863
:102BD000012B7047754600F029F8AE46050069469E
:102BE000534620F00700854618B020B5FFF792FE47
:102BF000BDE820404FF000064FF000074FF00008FE
:102C00004FF0000B21F00701AC46ACE8C009ACE87E
:102C1000C009ACE8C009ACE8C0098D46704704465D
:102C2000AFF300802046FDF7EFFA00000048704740
:102C30004419002001491820ABBEFEE7260002001F
:102C400070470000202020525057202020466C6FF3
:102C500077202025642E256420202025642E2564DD
:102C600020206B6A736B61666A6B736164666A6B62
:102C70006873616B66686B736A666B736A64666CB3
:102C80006B6A73646C666A20302020203620202016
:102C9000202020200000000020202052505720201B
:102CA00020466C6F77202025642E25642020202567
:102CB000642E256420206B6A736B61666A6B736196
:102CC00064666A6B6873616B66686B736A666B7364
:102CD0006A64666C6B6A73646C666A2030202020BC
:102CE0003620206A6B617364666A6B68736B61641B
:102CF00066686B6A736864666A68736B6164666849
:102D0000736B6466686B6A686B6A736861666A6B2A
:102D1000687364666A686B736A646620202020208A
:102D200000000000000000000000000000000000A3
:102D30000000000000000000000000000000000093
:102D40000000000000000000000000000000000083
:102D5000000000008001800180018001800180016D
:102D600080018001800180018001800180010000DC
:102D70000000800180010000000000000000000051
:102D8000000000000000CC00CC00CC00CC00CC0047
:102D9000CC00000000000000000000000000000067
:102DA0000000000000000000000000000000000023
:102DB0000000000000000000000000000000600CA7
:102DC000600C600C30063006FE1FFE1F3006380710
:102DD0001803FE1FFE1F180318038C018C018C01C1
:102DE000000000008000E003F80F9C0E8C1C8C1883
:102DF0008C009800F801E007800E801C8C188C185D
:102E00009C18B80CF00FE003800080000000000068
:102E100000000000000000000E181B0C110C110631
:102E20001106110311039B018E01C038C06C604470
:102E30006044304430441844186C0C3800000000E2
:102E400000000000E001F003380718061806300300
:102E5000F001F000F8009C310E33061E061C061C23
:102E6000063FFC73F021000000000000000000009D
:102E70000000000000000C000C000C000C000C0016
:102E80000C00000000000000000000000000000036
:102E90000000000000000000000000000000000032
:102EA00000000000000200038001C000C0006000BC
:102EB0006000300030003000300030003000300062
:102EC000300060006000C000C0008001000300020C
:102ED0000000000020006000C000800180010003AD
:102EE00000030006000600060006000600060006B5
:102EF00000060003000380018001C0006000200084
:102F00000000000000000000000000000000C00001
:102F1000C000D806F807E0013003380700000000C1
:102F200000000000000000000000000000000000A1
:102F30000000000000000000000000000000800110
:102F40008001800180018001FC3FFC3F8001800105
:102F500080018001800100000000000000000000EE
:102F60000000000000000000000000000000000061
:102F70000000000000000000000000000000000051
:102F800000000000800180010001000180000000BD
:102F90000000000000000000000000000000000031
:102FA00000000000000000000000E007E007000053
:102FB0000000000000000000000000000000000011
:102FC0000000000000000000000000000000000001
:102FD00000000000000000000000000000000000F1
:102FE00000000000C000C000000000000000000061
:102FF00000000000000C000C0006000600060003A4
:10300000000300038003800180018001C000C00034
:10301000C000600060000000000000000000000030
:1030200000000000E003F007380E180C0C180C1814
:103030000C180C180C180C180C180C180C18180C70
:10304000380EF007E0030000000000000000000060
:103050000000000000018001C001F001980188011A
:103060008001800180018001800180018001800158
:1030700080018001800100000000000000000000CD
:1030800000000000E003F80F180C0C180C180018D2
:103090000018000C000600038001C0006000300032
:1030A0001800FC1FFC1F00000000000000000000D2
:1030B00000000000E001F807180E0C0C0C0C000CCE
:1030C0000006C003C007000C001800180C180C18EC
:1030D000180CF807E00300000000000000000000EA
:1030E00000000000000C000E000F000F800DC00C4F
:1030F000600C600C300C180C0C0CFC3FFC3F000CFE
:10310000000C000C000C000000000000000000009B
:1031100000000000F80FF80F180018000C00EC0376
:10312000FC071C0E001C0018001800180C181C0CC2
:10313000180EF807E0030000000000000000000087
:1031400000000000C007F00F381C181818000C0011
:10315000CC03EC0F3C0E1C1C0C180C180C18181C83
:10316000380EF007E003000000000000000000003F
:1031700000000000FC1FFC1F000C000600060003FE
:1031800080038001C001C000E000600060007000AA
:10319000300030003000000000000000000000009F
:1031A00000000000E003F007380E180C180C180C93
:1031B0003806F007F007180C0C180C180C180C182F
:1031C000380CF80FE00300000000000000000000D1
:1031D00000000000E003F007380E1C0C0C180C185F
:1031E0000C181C1C381EF81BE0190018000C000CF1
:1031F0001C0EF807F00100000000000000000000B5
:10320000000000000000000000000000000080013D
:10321000800100000000000000000000000000002D
:10322000000080018001000000000000000000009C
:10323000000000000000000000000000000080010D
:1032400080010000000000000000000000000000FD
:1032500000008001800100010001800000000000EA
:10326000000000000000000000000000000000005E
:1032700000000010001C800FE003F8001800F800A8
:10328000E003800F001C00100000000000000000A0
:10329000000000000000000000000000000000002E
:1032A0000000F81F000000000000F81F00000000F0
:1032B000000000000000000000000000000000000E
:1032C00000000000000000000000000000000000FE
:1032D000000008003800F001C007001F0018001FA0
:1032E000C007F001380008000000000000000000E6
:1032F00000000000E003F80F180C0C180C18001860
:10330000000C000600038001C000C000C0000000E7
:103310000000C000C000000000000000000000002D
:10332000000000000000E00718180420C229224A0B
:10333000114409440944094409221113E20C0240D2
:1033400004201818E0070000000000000000000042
:103350000000000080038003C006C006C006600CA9
:10336000600C301830183018F83FF83F1C700C60B3
:103370000C6006C006C00000000000000000000055
:1033800000000000FC03FC0F0C0C0C180C180C18AF
:103390000C0CFC07FC0F0C180C300C300C300C30F3
:1033A0000C18FC1FFC0700000000000000000000DB
:1033B00000000000C007F01F38381C300C70066099
:1033C00006000600060006000600060006600C70F7
:1033D0001C30F01FE00700000000000000000000AB
:1033E00000000000FE03FE0F060E06180618063049
:1033F000063006300630063006300630061806184D
:10340000060EFE0FFE03000000000000000000009A
:1034100000000000FC3FFC3F0C000C000C000C0006
:103420000C00FC1FFC1F0C000C000C000C000C001E
:103430000C00FC3FFC3F000000000000000000000A
:1034400000000000F83FF83F1800180018001800AE
:103450001800F81FF81F18001800180018001800AE
:103460001800180018000000000000000000000014
:1034700000000000E00FF83F3C780E6006E007C057
:103480000300030003FE03FE03C007C006C00EC016
:103490003CF0F83FE00F00000000000000000000DA
:1034A000000000000C300C300C300C300C300C30B4
:1034B0000C30FC3FFC3F0C300C300C300C300C302E
:1034C0000C300C300C300000000000000000000048
:1034D00000000000800180018001800180018001E6
:1034E00080018001800180018001800180018001D4
:1034F0008001800180010000000000000000000049
:103500000000000000060006000600060006000697
:10351000000600060006000600060006180618064B
:103520003807F003E0010000000000000000000088
:103530000000000006300618060C06060603860189
:10354000C60066007600DE008E0106030606060C45
:1035500006180630066000000000000000000000B1
:1035600000000000180018001800180018001800CB
:10357000180018001800180018001800180018008B
:103580001800F81FF81F00000000000000000000F5
:10359000000000000EE01EF01EF01EF036D836D8F7
:1035A00036D836D866CC66CC66CCC6C6C6C6C6C6C5
:1035B000C6C686C386C300000000000000000000ED
:1035C000000000000C301C303C303C306C306C3063
:1035D000CC30CC308C310C330C330C360C360C3CEC
:1035E0000C3C0C380C300000000000000000000013
:1035F00000000000E007F81F1C380E70066003C0D2
:1036000003C003C003C003C003C003C006600E7044
:103610001C38F81FE0070000000000000000000058
:1036200000000000FC0FFC1F0C380C300C300C307C
:103630000C300C18FC1FFC070C000C000C000C00DC
:103640000C000C000C000000000000000000000056
:1036500000000000E007F81F1C380E70066003E051
:1036600003C003C003C003C003C007E006630E3FEE
:103670001C3CF83FE0F700C0000000000000000024
:1036800000000000FE0FFE1F063806300630063030
:103690000638FE1FFE0706030606060C0618061867
:1036A0000630063006600000000000000000000048
:1036B00000000000E003F80F1C0C0C180C180C00A4
:1036C0001C00F803E00F001E0038063006300E30F4
:1036D0001C1CF80FE00700000000000000000000C4
:1036E00000000000FE7FFE7F8001800180018001DC
:1036F00080018001800180018001800180018001C2
:103700008001800180010000000000000000000036
:10371000000000000C300C300C300C300C300C3041
:103720000C300C300C300C300C300C300C300C30B9
:103730001818F81FE007000000000000000000005B
:103740000000000003600630063006300C180C182C
:103750000C18180C180C380E300630067007600371
:103760006003C001C0010000000000000000000074
:10377000000000000360C361C361C3616633663348
:1037800066336633663366336C1B6C1B6C1B2C1AFA
:103790003C1E380E380E0000000000000000000043
:1037A000000000000FE00C7018303018700C600E34
:1037B000C00780038003C003E006700C301C18189B
:1037C0000C300E6007E00000000000000000000068
:1037D0000000000003C006600C301C383818300CA4
:1037E0006006E007C0038001800180018001800144
:1037F0008001800180010000000000000000000046
:1038000000000000FC7FFC7F006000300018000C0E
:10381000000600038001C0006000300018000C00AA
:103820000600FE7FFE7F0000000000000000000098
:1038300000000000E003E003600060006000600042
:103840006000600060006000600060006000600078
:10385000600060006000600060006000E003E00362
:103860000000000030003000600060006000C00018
:10387000C000C000C001800180018001000300037E
:103880000003000600060000000000000000000029
:1038900000000000E003E003000300030003000356
:1038A0000003000300030003000300030003000300
:1038B000000300030003000300030003E003E00330
:1038C000000000000000C001C0016003600360034D
:1038D00030063006180C180C000000000000000034
:1038E00000000000000000000000000000000000D8
:1038F00000000000000000000000000000000000C8
:1039000000000000000000000000000000000000B7
:1039100000000000FFFFFFFF0000000000000000AB
:10392000000000000C000C000C000C000C000C004F
:103930000000000000000000000000000000000087
:103940000000000000000000000000000000000077
:103950000000000000000000000000000000F00374
:10396000F8071C0C0C0C000FF00FF80C0C0C0C0CD6
:103970001C0FF80FF018000000000000000000000D
:103980000000000018001800180018001800D803E4
:10399000F80F380C181818181818181818181818BC
:1039A000380CF80FD80300000000000000000000F1
:1039B0000000000000000000000000000000C00344
:1039C000F007300E180C1800180018001800180C1A
:1039D000300EF007C00300000000000000000000EF
:1039E0000000000000180018001800180018C01B84
:1039F000F01F301C1818181818181818181818184C
:103A0000301CF01FC01B0000000000000000000080
:103A10000000000000000000000000000000C003E3
:103A2000F00F300C1818F81FF81F1800180038187D
:103A3000301CF00FC0070000000000000000000074
:103A400000000000800FC00FC000C000C000F007E1
:103A5000F007C000C000C000C000C000C000C0002F
:103A6000C000C000C0000000000000000000000016
:103A70000000000000000000000000000000E00D59
:103A8000F80F180E0C0C0C0C0C0C0C0C0C0C0C0C79
:103A9000180EF80FE00D000C0C0C1C06F807F001D6
:103AA0000000000018001800180018001800D807BF
:103AB000F80F381C1818181818181818181818188B
:103AC0001818181818180000000000000000000066
:103AD00000000000C000C000000000000000C000A6
:103AE000C000C000C000C000C000C000C000C000D6
:103AF000C000C000C0000000000000000000000086
:103B000000000000C000C000000000000000C00075
:103B1000C000C000C000C000C000C000C000C000A5
:103B2000C000C000C000C000C000C000F8007800A5
:103B3000000000000C000C000C000C000C000C0C31
:103B40000C060C038C01CC006C00FC009C018C0367
:103B50000C030C060C0C000000000000000000002C
:103B600000000000C000C000C000C000C000C000D5
:103B7000C000C000C000C000C000C000C000C00045
:103B8000C000C000C00000000000000000000000F5
:103B900000000000000000000000000000007C3C6D
:103BA000FF7EC7E383C183C183C183C183C183C156
:103BB00083C183C183C10000000000000000000039
:103BC0000000000000000000000000000000980756
:103BD000F80F381C1818181818181818181818186A
:103BE0001818181818180000000000000000000045
:103BF0000000000000000000000000000000C00302
:103C0000F00F300C18181818181818181818181859
:103C1000300CF00FC00300000000000000000000A6
:103C20000000000000000000000000000000D803B9
:103C3000F80F380C18181818181818181818181819
:103C4000380CF80FD80318001800180018001800D6
:103C50000000000000000000000000000000C01B89
:103C6000F01F301C181818181818181818181818D9
:103C7000301CF01FC01B0018001800180018001896
:103C80000000000000000000000000000000B0077D
:103C9000F0037000300030003000300030003000A1
:103CA0003000300030000000000000000000000084
:103CB0000000000000000000000000000000E00321
:103CC000F003380E180C3800F003C007000C180C75
:103CD000380EF007E00300000000000000000000C4
:103CE0000000000000008000C000C000C000F0071D
:103CF000F007C000C000C000C000C000C000C0008D
:103D0000C000C007800700000000000000000000A5
:103D10000000000000000000000000000000181873
:103D20001818181818181818181818181818181813
:103D3000381CF01FE0190000000000000000000027
:103D400000000000000000000000000000000C184F
:103D5000180C180C180C300630063006600360038F
:103D60006003C001C001000000000000000000006E
:103D70000000000000000000000000000000C14141
:103D8000C141C36163636363636336363636363677
:103D90001C1C1C1C1C1C000000000000000000007B
:103DA00000000000000000000000000000001C38BF
:103DB000381C300C6006600360036003600360061B
:103DC000300C381C1C38000000000000000000000F
:103DD000000000000000000000000000000018309B
:103DE000301830187018600C600CE00CC006C0066B
:103DF00080038003800380018001C001F000700017
:103E00000000000000000000000000000000FC1F97
:103E1000FC1F000C000600038001C00060003000A1
:103E20001800FC1FFC1F0000000000000000000044
:103E30000000000000038001C000C000C000C000FE
:103E4000C000C00060006000300060004000C000A2
:103E5000C000C000C000C000C0008001000300001E
:103E6000000000008001800180018001800180014C
:103E7000800180018001800180018001800180013A
:103E8000800180018001800180018001800180012A
:103E9000000000006000C000C001800180018001BE
:103EA000800180010003000300060003000180017F
:103EB00080018001800180018001C000600000005D
:103EC00000000000000000000000000000000000F2
:103ED0000000F010F81F080F0000000000000000B4
:103EE00000000000000000000000000000000000D2
:103EF00000000000143F00080000002034190000FA
:103F00006C010008B44D000834190020740600004C
:103F1000C8010008610310FFFF2824F8049484847A
:103F20009404F80708080909080807F8FC6C7C7C69
:103F30006CFCF8070F0F0E0E0F0F07E0F0F00311E7
:103F400010080103070F070301200880C0E0F0E01C
:103F5000C0801911190F111811C0C0F03838F0C005
:103F6000C00101090E0E0901011F1BF8F822111EE4
:103F700001090F0F09211932292F29312930180879
:103F8000FFFF7F3F3F7FFF011DFEFCFCFE9027C02F
:103F900060202060C0170306040406031018FF3FCA
:103FA0009FDFDF9F3FFFFFFCF9FBFBF9FCFF80C0B9
:103FB0006074DC8C3C37070F08080F072778FC84F7
:103FC00084FC783702020F0F02023809FCFC14143B
:103FD0001C1C0C0E1E490F2714FCFC1C1F0F19146F
:103FE0001813A0A0C07878C0A0A00202010F0F0192
:103FF0000202FEFC9E13404039CD311B4040B14BC4
:10400000FCFEA11A07343F1018FCFC18100E3923CF
:104010004BFCFC043B0D0D042F387C44FCFC0411CC
:10402000111B0F0F031008C4EE3A1232E6C49008B9
:1040300008191312171D084A0F0189508F090B0F19
:104040000F0B0910394059B2411702060F0F060233
:104050003808808080A0E0C08012297F1D80C0E0E9
:10406000A014299029ED1163C0C02C03030201297B
:10407000203A803013010339D21D80E0F0E00F2B8D
:1040800006070112062B30F0012A30320315070310
:104090005538FCFC3829E221230E1E931E0E2C20DD
:1040A000F8F803112C020F0F03111008387C444755
:1040B00047CC981008060C0838380F071B3030839F
:1040C0001360301B0C067E130C0C100880D87CE4A7
:1040D000BCD8401D070F08080419F0994D513DF058
:1040E000F80C04C21B070C1F2145040CF8F02B0828
:1040F0000CA129FE29F329FE39F31E8080E0E0801F
:10410000D129F3D149594A80010114198E5189A04E
:10411000497E2AC471297E39713D1018FCFC7F1B31
:10412000080FB319861684C4643C181E0E0F0908C4
:1041300008421808080C444444FCB8A61A08221285
:10414000073FC0E0B098FCFC702931111B7C7C203B
:104150007BC484201008F0F84C4444C08019FC391A
:104160001030080C0C0484C47C3C430F0F4BB8FC8B
:104170005069202A38402BFCF88049902163303068
:1041800063060659103B080E1029CE3318081D018E
:1041900003060C083A2001190F390119271C1830A1
:1041A000608019B939F21E181C04C4E4D031330DF3
:1041B0000D2808F0F808C8C8F8F080150B0B0B01A3
:1041C0004808E0F0988C98F0E09E19051B04FCA1CB
:1041D00019A029DD49D0160C04040C181B0307E1B3
:1041E0002B0C06201B040C40292029B029304CE45C
:1041F0000C1C30BB0C0E104119404D84848C98402F
:1042000013070F7808FCFC404040FCFC7021295249
:1042100039E05932491119A0297F290D3CC0E03CF1
:1042200050113B010F60792E29709EFCFC387038CC
:104230005029109AE0103808F8FC040404FCF850E7
:10424000295139E07B7C386E99203D0E3C3F272078
:104250003BC4FC2039401008183C6444C49C184BF3
:10426000060E40111D1C0CFCFCE069B0196B3905F1
:104270006960691028080103060C0603010B4AC097
:10428000201C0E030E2010080C3CF0E0F03C0C202B
:10429000080C0F0301030F0C7F3C7CC0C07C3C501A
:1042A0001E1C0C84C464F03C0E0F09E0294D3A0436
:1042B000F229F12119DE63C0802C0103072019BF08
:1042C000297411197F19B31A08763B060CDBD15AF1
:1042D0002001213B03074F8126A0A0A0E0C029C0F8
:1042E000190411194D2B206062296F19B01BC0E011
:1042F000354B6040E0130C042D80C06024706930A1
:104300004BC0E04169206F40F8FC440C18CE2129D5
:10431000401904111F276F48487F3FAE1DFCFC4029
:10432000203039AD2904115420ECEC693259121DAA
:104330003070404031193019732A201E2D01030EB0
:104340000CF049EF59301EE0E060C06050194B2A74
:104350000705195C2A2060395C190439C069A01965
:10436000D069206D407F7F48E029A019202D487F2B
:104370007F40205A60A0398E100840E0A0202060C5
:10438000401008040C09090B0E04472020F8FC20FB
:1043900020193219F02BE0E084390E1A0804490D77
:1043A00029042F03070C0C07030B2A80052E070F87
:1043B0000C070C804B60C0D0191D3C070C082B2942
:1043C000051008474F4848683F1F1E606020A0E066
:1043D000201F0C0E0B09080CF05F4040F8BC0404D1
:1043E00071399363BCBC29E221270404BCF8404026
:1043F00039DE19072C0C040C9881196D1A307311D1
:104400001008070704040407071008F0F80C040458
:104410000C181008012326242C3E1323E4E429045D
:1044200069C03808C0E0A8ACA6E2C0103948190F2E
:104430008BECC8209F04A4A0A0E4C4F09EA2A6AC6C
:10444000E8C010ADA4AEAAEE2027E0F01010302096
:1044500017011312161F093CC0E8AC3169603CC457
:10446000E4A05169109FC0E2A6ACA8E0802E04240D
:10447000E0E004D02B080F4F113E082CE6E60C09B3
:104480004910550226ECE849101008C2E2301830F5
:10449000E2C218080F0F0101010F0F501C3715372A
:1044A000D06910380810F4F69391B0302E14080C2F
:1044B0000C1E2060C0C020701008060F09070F09ED
:1044C000091808F0F84C44FCFC44302129516EC016
:1044D000E82C262CB01B0F07B06C202020B0191040
:1044E0006EC0E2262C28B019102DE8EC06069129A2
:1044F000101904118FE0E2060CE8E01033E4E4192F
:10450000051008074F4848683F1F1BF2FA387BFA2E
:10451000F24033FAFA190569101991250E0E181098
:104520001701030E0E03012720FCFE22060C3A0C95
:10453000C022041F4C5CF0F05C4C2019DE1301011A
:104540003808FEFE1292DEEC80C0297011180B4074
:1045500040FCFE4246041030206E318EA8ACA6E22C
:10456000C090214528ECE6022A08EF39F09A22D0C3
:104570009EE0E80C06E2C01D28ECC42C0421296151
:1045800019043808FAFB71E3C2FBF90F198219907C
:10459000A65E525E5E502910199F914480EC6C39E2
:1045A00060130E062CC0C04001111A07EB41390EF2
:1045B0001AC0A13925120710083E3E80C06030188D
:1045C0009808060321323A2E241046090C0E3F3F6C
:1045D0004BECEC2D1A0FAF11191E1DA0C060208DE1
:1045E0001B0302031110082060C0A060C0801C02E1
:1045F0000301033112AAAA5504DAAA02AD55FFAA93
:10460000FF04312AFF056908BC80808010DCA0A06F
:10461000A0201907390A49081930290179101930E1
:10462000BBE0E040ABBFBF30E90819303BA020320F
:1046300069107BBFBF825970A91099905920497E9B
:10464000B9C8791359D0C91099B1B93059E0792056
:10465000E94089301985891039B8192089D82C800A
:10466000BFBF20713CE0E0203099E09920191BAADF
:10467000A02039083920693049018930DBBFBF20CB
:10468000190E892039AF399089605940D9E099B025
:10469000993099E089C1B9F0C94089707990694031
:1046A00069705938915940697EC90169A0A91449B6
:1046B000958947A9145A7F01811008C0E020E0C005
:1046C00060201008070F080F070C0827F8FC0444A7
:1046D000FCB8230F0F1912113808FCFC0404041C49
:1046E0001C10412C10F0F00339212914100818383F
:1046F00068C888181838080C0E0B09080C0C505B99
:10470000E02050413BF0F0041008101F0F0202039C
:10471000011F203010F0E0304049632127C8E838FD
:1047200038E8C81C090B0E43111008E0F09888986F
:10473000F0E01A038D140C0703180870F88C048C31
:10474000F8708C297022082780C85C74E4C4196151
:10475000296249701FE0C001030203033A011038C7
:104760000830F8C8090F07037136F0F84C444429A3
:1047700051193F4808F0F8080808F8F07D19054A73
:1047800090011119E6290121174040F0F04040192D
:10479000261B090905211E0818B0E040071A0AE186
:1047A000190F1D40E0B0180719212C090B0A091137
:1047B00036F8FC041C1863FFFF3908199F199E3155
:1047C000478080B0B080803306061D4060206004C2
:1047D00011199B29AF21D60C1E121E0C492E211A2D
:1047E000011EC139101A801E2DFEFE0202D029C4FE
:1047F0001C027E7C03A1C664765A4E642AF001290D
:104800009129010117101F3E5B4F5B3E3E6B4F6BC2
:104810003E1C3E7C3E1C183C7E3C181C577D571CA1
:104820001C5E7F5E1C14183C1816FFE7C3E7FF2BC5
:1048300018240A1813DBE7FF30483A060E262979B8
:104840002926407F050507051019253F5A3CE73CFE
:104850005A7F3E1C1C08081C1C3E7F14227F221419
:104860005F5F10085F5F06097F017F2E6689956A8A
:104870006001281394A2FFA29408047E040810206B
:104880007E201008082A321E2A08081E10011B0C60
:104890001E02700B30383E3830060E3E0E062A5F80
:1048A000C219021B147F021010242A7F2A1223131C
:1048B000086462364956205024080703241C22410C
:1048C0001441221C2C2A1C7F4D143E0808148070B1
:1048D000302A080121136060196B100804023E5150
:1048E00049453E14427F40182072494949462141BA
:1048F000494D331814127F1027454545393C4A4924
:1049000049314121110907361E2736464949291EDA
:1049100032143340342E081422411401196928132B
:10492000140802015909063E415D594E7C121112CC
:104930007C7F321F3E414141227F052A3E0F1F41AD
:104940007F09090901141C51737F86127F14417F6E
:10495000412F2040413F017F4B1B7F4001280B7FAF
:10496000021C027F7F0408107F3C2A3E3219551832
:104970000A51215E7F09192946264618083203018B
:104980007F01033F2C101B3F1F2040201F3F40385A
:10499000403F631408146303047804036159494DCC
:1049A0004329741A0246122019092F7F04020102BA
:1049B000045E124014030708181020545478407FF6
:1049C000284444383844444428051008287F385483
:1049D000545418100F087E090218A4A49C787F086C
:1049E0000404781C447D40A013403D257F102844DA
:1049F00019A2111A7C642B787C1E293C2F38FC18D4
:104A0000242418042AFC141B084846180D24040406
:104A10003F44243C4040207C1CA018091C3C4030F2
:104A2000403C442842100B4C9090907C4464544C81
:104A30004434083641327714413608299F180D0254
:104A40003C2623263C1EA1A161123A3C1A7A9118F9
:104A5000095559215555794121AF1C412155B418AB
:104A60001120545579400C1E527212395555555922
:104A7000396E2759395554545814457C411502450F
:104A80007D42281301457C40F0292429F0F0282597
:104A900028F07C545545F010217C547C0A097F494C
:104AA00032494949323248484832324A4848303A15
:104AB0004141217A3A424020781E9DA0A07D39D202
:104AC0001C393D40F1181A3C24FF2424487E4943F8
:104AD000662B2FFC2F2BFF0929F620C0887E0903A7
:104AE0004B1A79BA100E447D413048484A3238405A
:104AF00040227A180F7A0A0A727D0D19317D262913
:104B0000292F2805580A292630484D402038080109
:104B1000200C382F10C8ACBA2F102834FA227B1F73
:104B200008142A142222051308AA12551CAAAA55F1
:104B3000023112FF15101010FF2C1414140A12FF6A
:104B40001FFF1010F010F00F1AFC141AF71F1903B2
:104B5000180DFF1414F404FC141417101F10031A7A
:104B60001F1E2A1F3742F019132915290F2A10502A
:104B7000290A39013AFF0F3A1441292722172CFC40
:104B800004F4462A17502AF4191AF74B29013AF768
:104B90000A6B17145F1AF40A198729372A1F641938
:104BA00046111AFC051914295919911B14FF2339B0
:104BB0001D19152AFF012AF0011908512CFFFF0FBA
:104BC00001181238444438447C2A2A3E147E0202DA
:104BD0000606027E021E63554941631928083C04FB
:104BE000407E201E201510240299A5E7A5991C2AB5
:104BF000492A1C4C7201724C304A4D4D3030487875
:104C00004830BC625A463D3E4949492F7E01010168
:104C10007E2A01181044445F444440514A444040B5
:104C2000444A51406D1D0103E08078201008086B54
:104C30006B083612362436060F090F063318181380
:104C40001010163040FF0101151F01011E15191D1E
:104C500017121A3C0101C5163E0A0A0A04161C2244
:104C600022221C1B1E2002111B3E2A0139186A3405
:104C70000C391E492F1910121406140608300806A4
:104C800022803A4003080A308040402020100884E7
:104C90007E91296C1518342C0815282C3414123ADE
:104CA0001518A4A47C4D3C0404381B153E04083E92
:104CB000E53C12123C1220120822021812F00804DD
:104CC0008442221111182844840A1221C0C11512ED
:104CD000081A2098014A39DC2901A17348011808F3
:104CE000071AA3C4484830FB700888844542211045
:104CF0000F0A14924A2901890E09101F3C402060B6
:104D00006C680D1010107038180804040202016B52
:104D1000C15B02103D1EFE4160508826700A0505E9
:104D2000081021A24428F00212244B1C034B100D42
:104D3000FF80C02030180CE67F2120C0080C1480B2
:104D4000E03020161E0604020E066A011A12021234
:104D5000081013208043242810118A8CC44222A1F9
:104D60001110880443121012040919493CF01E075F
:104D70001E330603092D7201130E293F1008040289
:104D8000462A0E77013D10091040AED580A83FD3CA
:104D900015408D1420400EA1C8DA1281CFD9F1DB65
:104DA00040A4A6AF2D010203040410090607080958
:044DB00002040608EB
:0400000508000131BD
:00000001FF
